{
  "contractName": "MetaSwap",
  "abi": [
    {
      "constant": true,
      "inputs": [],
      "name": "claimWindowBlocks",
      "outputs": [
        {
          "internalType": "uint256",
          "name": "",
          "type": "uint256"
        }
      ],
      "payable": false,
      "stateMutability": "view",
      "type": "function"
    },
    {
      "constant": true,
      "inputs": [],
      "name": "frozenBuffer",
      "outputs": [
        {
          "internalType": "uint256",
          "name": "",
          "type": "uint256"
        }
      ],
      "payable": false,
      "stateMutability": "view",
      "type": "function"
    },
    {
      "constant": true,
      "inputs": [],
      "name": "maximumSpendProportion",
      "outputs": [
        {
          "internalType": "uint256",
          "name": "",
          "type": "uint256"
        }
      ],
      "payable": false,
      "stateMutability": "view",
      "type": "function"
    },
    {
      "constant": true,
      "inputs": [],
      "name": "purgatoryDuration",
      "outputs": [
        {
          "internalType": "uint256",
          "name": "",
          "type": "uint256"
        }
      ],
      "payable": false,
      "stateMutability": "view",
      "type": "function"
    },
    {
      "constant": true,
      "inputs": [
        {
          "internalType": "address",
          "name": "account",
          "type": "address"
        },
        {
          "internalType": "address",
          "name": "asset",
          "type": "address"
        }
      ],
      "name": "getBalance",
      "outputs": [
        {
          "internalType": "uint256",
          "name": "value",
          "type": "uint256"
        }
      ],
      "payable": false,
      "stateMutability": "view",
      "type": "function"
    },
    {
      "constant": true,
      "inputs": [
        {
          "internalType": "address",
          "name": "account",
          "type": "address"
        }
      ],
      "name": "getBurnerWallet",
      "outputs": [
        {
          "internalType": "address",
          "name": "burnerWallet",
          "type": "address"
        }
      ],
      "payable": false,
      "stateMutability": "view",
      "type": "function"
    },
    {
      "constant": true,
      "inputs": [
        {
          "internalType": "address",
          "name": "account",
          "type": "address"
        }
      ],
      "name": "coldEnoughBlock",
      "outputs": [
        {
          "internalType": "uint256",
          "name": "blocknumber",
          "type": "uint256"
        }
      ],
      "payable": false,
      "stateMutability": "view",
      "type": "function"
    },
    {
      "constant": true,
      "inputs": [
        {
          "internalType": "address",
          "name": "account",
          "type": "address"
        }
      ],
      "name": "isColdEnough",
      "outputs": [
        {
          "internalType": "bool",
          "name": "coldEnough",
          "type": "bool"
        }
      ],
      "payable": false,
      "stateMutability": "view",
      "type": "function"
    },
    {
      "constant": false,
      "inputs": [],
      "name": "freeze",
      "outputs": [
        {
          "internalType": "bool",
          "name": "success",
          "type": "bool"
        }
      ],
      "payable": false,
      "stateMutability": "nonpayable",
      "type": "function"
    },
    {
      "constant": false,
      "inputs": [],
      "name": "unFreeze",
      "outputs": [
        {
          "internalType": "bool",
          "name": "success",
          "type": "bool"
        }
      ],
      "payable": false,
      "stateMutability": "nonpayable",
      "type": "function"
    },
    {
      "constant": true,
      "inputs": [
        {
          "internalType": "address",
          "name": "account",
          "type": "address"
        }
      ],
      "name": "notInPurgatory",
      "outputs": [
        {
          "internalType": "bool",
          "name": "",
          "type": "bool"
        }
      ],
      "payable": false,
      "stateMutability": "view",
      "type": "function"
    },
    {
      "constant": false,
      "inputs": [
        {
          "internalType": "address",
          "name": "burnerWallet",
          "type": "address"
        },
        {
          "internalType": "bool",
          "name": "done",
          "type": "bool"
        }
      ],
      "name": "configureAccount",
      "outputs": [
        {
          "internalType": "bool",
          "name": "success",
          "type": "bool"
        }
      ],
      "payable": false,
      "stateMutability": "nonpayable",
      "type": "function"
    },
    {
      "constant": false,
      "inputs": [
        {
          "internalType": "address",
          "name": "asset",
          "type": "address"
        },
        {
          "internalType": "uint256",
          "name": "amount",
          "type": "uint256"
        }
      ],
      "name": "withdraw",
      "outputs": [
        {
          "internalType": "bool",
          "name": "success",
          "type": "bool"
        }
      ],
      "payable": false,
      "stateMutability": "nonpayable",
      "type": "function"
    },
    {
      "constant": false,
      "inputs": [
        {
          "internalType": "address",
          "name": "asset",
          "type": "address"
        },
        {
          "internalType": "uint256",
          "name": "value",
          "type": "uint256"
        }
      ],
      "name": "depositToken",
      "outputs": [
        {
          "internalType": "bool",
          "name": "success",
          "type": "bool"
        }
      ],
      "payable": false,
      "stateMutability": "nonpayable",
      "type": "function"
    },
    {
      "constant": false,
      "inputs": [],
      "name": "depositEther",
      "outputs": [
        {
          "internalType": "bool",
          "name": "success",
          "type": "bool"
        }
      ],
      "payable": true,
      "stateMutability": "payable",
      "type": "function"
    },
    {
      "constant": true,
      "inputs": [
        {
          "internalType": "address",
          "name": "account",
          "type": "address"
        },
        {
          "internalType": "address",
          "name": "asset",
          "type": "address"
        }
      ],
      "name": "calculateMaxSpend",
      "outputs": [
        {
          "internalType": "uint256",
          "name": "maxSpend",
          "type": "uint256"
        }
      ],
      "payable": false,
      "stateMutability": "view",
      "type": "function"
    },
    {
      "constant": false,
      "inputs": [
        {
          "internalType": "uint32",
          "name": "nonce",
          "type": "uint32"
        },
        {
          "internalType": "address",
          "name": "account",
          "type": "address"
        },
        {
          "internalType": "address payable",
          "name": "receiver",
          "type": "address"
        },
        {
          "internalType": "address",
          "name": "asset",
          "type": "address"
        },
        {
          "internalType": "uint256",
          "name": "amount",
          "type": "uint256"
        },
        {
          "internalType": "uint256",
          "name": "expirationBlock",
          "type": "uint256"
        },
        {
          "internalType": "bytes32",
          "name": "preImageHash",
          "type": "bytes32"
        },
        {
          "internalType": "address payable",
          "name": "relayerAddress",
          "type": "address"
        },
        {
          "internalType": "address",
          "name": "relayerAsset",
          "type": "address"
        },
        {
          "internalType": "uint256",
          "name": "relayerAmount",
          "type": "uint256"
        },
        {
          "internalType": "uint256",
          "name": "relayerExpirationBlock",
          "type": "uint256"
        },
        {
          "internalType": "bytes32",
          "name": "preImage",
          "type": "bytes32"
        },
        {
          "internalType": "bytes",
          "name": "signature",
          "type": "bytes"
        }
      ],
      "name": "swap",
      "outputs": [],
      "payable": false,
      "stateMutability": "nonpayable",
      "type": "function"
    }
  ],
  "bytecode": "0x608060405234801561001057600080fd5b50612137806100206000396000f3fe6080604052600436106100fe5760003560e01c80637cf12b90116100955780639ae47f63116100645780639ae47f63146104d0578063d41526d2146104fb578063d4fac45d14610564578063ebbc2267146105e9578063f3fef3a31461079e576100fe565b80637cf12b901461038557806384617d66146103b45780639462cf301461042957806398ea5fca146104ae576100fe565b80634e261434116100d15780634e26143414610297578063520f545e146102c25780635c5469fe146102ed57806362a5af3b14610356576100fe565b8063057929051461010357806317e2e7cc146101685780632fe9cb3714610193578063338b5dea14610224575b600080fd5b34801561010f57600080fd5b506101526004803603602081101561012657600080fd5b81019080803573ffffffffffffffffffffffffffffffffffffffff169060200190929190505050610811565b6040518082815260200191505060405180910390f35b34801561017457600080fd5b5061017d610862565b6040518082815260200191505060405180910390f35b34801561019f57600080fd5b506101e2600480360360208110156101b657600080fd5b81019080803573ffffffffffffffffffffffffffffffffffffffff169060200190929190505050610867565b604051808273ffffffffffffffffffffffffffffffffffffffff1673ffffffffffffffffffffffffffffffffffffffff16815260200191505060405180910390f35b34801561023057600080fd5b5061027d6004803603604081101561024757600080fd5b81019080803573ffffffffffffffffffffffffffffffffffffffff169060200190929190803590602001909291905050506108d2565b604051808215151515815260200191505060405180910390f35b3480156102a357600080fd5b506102ac610ad4565b6040518082815260200191505060405180910390f35b3480156102ce57600080fd5b506102d7610ad9565b6040518082815260200191505060405180910390f35b3480156102f957600080fd5b5061033c6004803603602081101561031057600080fd5b81019080803573ffffffffffffffffffffffffffffffffffffffff169060200190929190505050610ae0565b604051808215151515815260200191505060405180910390f35b34801561036257600080fd5b5061036b610b85565b604051808215151515815260200191505060405180910390f35b34801561039157600080fd5b5061039a610c2e565b604051808215151515815260200191505060405180910390f35b3480156103c057600080fd5b5061040f600480360360408110156103d757600080fd5b81019080803573ffffffffffffffffffffffffffffffffffffffff169060200190929190803515159060200190929190505050610cef565b604051808215151515815260200191505060405180910390f35b34801561043557600080fd5b506104986004803603604081101561044c57600080fd5b81019080803573ffffffffffffffffffffffffffffffffffffffff169060200190929190803573ffffffffffffffffffffffffffffffffffffffff169060200190929190505050610de9565b6040518082815260200191505060405180910390f35b6104b6610e7a565b604051808215151515815260200191505060405180910390f35b3480156104dc57600080fd5b506104e5610f82565b6040518082815260200191505060405180910390f35b34801561050757600080fd5b5061054a6004803603602081101561051e57600080fd5b81019080803573ffffffffffffffffffffffffffffffffffffffff169060200190929190505050610f87565b604051808215151515815260200191505060405180910390f35b34801561057057600080fd5b506105d36004803603604081101561058757600080fd5b81019080803573ffffffffffffffffffffffffffffffffffffffff169060200190929190803573ffffffffffffffffffffffffffffffffffffffff1690602001909291905050506110d0565b6040518082815260200191505060405180910390f35b3480156105f557600080fd5b5061079c60048036036101a081101561060d57600080fd5b81019080803563ffffffff169060200190929190803573ffffffffffffffffffffffffffffffffffffffff169060200190929190803573ffffffffffffffffffffffffffffffffffffffff169060200190929190803573ffffffffffffffffffffffffffffffffffffffff169060200190929190803590602001909291908035906020019092919080359060200190929190803573ffffffffffffffffffffffffffffffffffffffff169060200190929190803573ffffffffffffffffffffffffffffffffffffffff1690602001909291908035906020019092919080359060200190929190803590602001909291908035906020019064010000000081111561071657600080fd5b82018360208201111561072857600080fd5b8035906020019184600183028401116401000000008311171561074a57600080fd5b91908080601f016020809104026020016040519081016040528093929190818152602001838380828437600081840152601f19601f820116905080830192505050505050509192919290505050611157565b005b3480156107aa57600080fd5b506107f7600480360360408110156107c157600080fd5b81019080803573ffffffffffffffffffffffffffffffffffffffff169060200190929190803590602001909291905050506117b7565b604051808215151515815260200191505060405180910390f35b6000600860146000808573ffffffffffffffffffffffffffffffffffffffff1673ffffffffffffffffffffffffffffffffffffffff1681526020019081526020016000206002015401019050919050565b600581565b60008060008373ffffffffffffffffffffffffffffffffffffffff1673ffffffffffffffffffffffffffffffffffffffff16815260200190815260200160002060000160049054906101000a900473ffffffffffffffffffffffffffffffffffffffff169050919050565b60008273ffffffffffffffffffffffffffffffffffffffff166323b872dd3330856040518463ffffffff1660e01b8152600401808473ffffffffffffffffffffffffffffffffffffffff1673ffffffffffffffffffffffffffffffffffffffff1681526020018373ffffffffffffffffffffffffffffffffffffffff1673ffffffffffffffffffffffffffffffffffffffff1681526020018281526020019350505050602060405180830381600087803b15801561098f57600080fd5b505af11580156109a3573d6000803e3d6000fd5b505050506040513d60208110156109b957600080fd5b81019080805190602001909291905050505081600160003373ffffffffffffffffffffffffffffffffffffffff1673ffffffffffffffffffffffffffffffffffffffff16815260200190815260200160002060008573ffffffffffffffffffffffffffffffffffffffff1673ffffffffffffffffffffffffffffffffffffffff1681526020019081526020016000205401600160003373ffffffffffffffffffffffffffffffffffffffff1673ffffffffffffffffffffffffffffffffffffffff16815260200190815260200160002060008573ffffffffffffffffffffffffffffffffffffffff1673ffffffffffffffffffffffffffffffffffffffff168152602001908152602001600020819055506001905092915050565b600881565b6202ab9881565b6000806000808473ffffffffffffffffffffffffffffffffffffffff1673ffffffffffffffffffffffffffffffffffffffff168152602001908152602001600020600101541415610b345760019050610b80565b6202ab986000808473ffffffffffffffffffffffffffffffffffffffff1673ffffffffffffffffffffffffffffffffffffffff1681526020019081526020016000206001015443031190505b919050565b6000436000803373ffffffffffffffffffffffffffffffffffffffff1673ffffffffffffffffffffffffffffffffffffffff1681526020019081526020016000206002018190555060016000803373ffffffffffffffffffffffffffffffffffffffff1673ffffffffffffffffffffffffffffffffffffffff16815260200190815260200160002060030160006101000a81548160ff0219169083151502179055506001905090565b6000610c3933610f87565b610c8e576040517f08c379a00000000000000000000000000000000000000000000000000000000081526004018080602001828103825260298152602001806120da6029913960400191505060405180910390fd5b60008060003373ffffffffffffffffffffffffffffffffffffffff1673ffffffffffffffffffffffffffffffffffffffff16815260200190815260200160002060030160006101000a81548160ff0219169083151502179055506001905090565b6000610cfa33610f87565b610d4f576040517f08c379a00000000000000000000000000000000000000000000000000000000081526004018080602001828103825260298152602001806120da6029913960400191505060405180910390fd5b826000803373ffffffffffffffffffffffffffffffffffffffff1673ffffffffffffffffffffffffffffffffffffffff16815260200190815260200160002060000160046101000a81548173ffffffffffffffffffffffffffffffffffffffff021916908373ffffffffffffffffffffffffffffffffffffffff1602179055508115610ddf57610ddd610c2e565b505b6001905092915050565b60006005600160008573ffffffffffffffffffffffffffffffffffffffff1673ffffffffffffffffffffffffffffffffffffffff16815260200190815260200160002060008473ffffffffffffffffffffffffffffffffffffffff1673ffffffffffffffffffffffffffffffffffffffff1681526020019081526020016000205481610e7157fe5b04905092915050565b600034600160003373ffffffffffffffffffffffffffffffffffffffff1673ffffffffffffffffffffffffffffffffffffffff16815260200190815260200160002060008073ffffffffffffffffffffffffffffffffffffffff1673ffffffffffffffffffffffffffffffffffffffff1681526020019081526020016000205401600160003373ffffffffffffffffffffffffffffffffffffffff1673ffffffffffffffffffffffffffffffffffffffff16815260200190815260200160002060008073ffffffffffffffffffffffffffffffffffffffff1673ffffffffffffffffffffffffffffffffffffffff168152602001908152602001600020819055506001905090565b601481565b60008060008373ffffffffffffffffffffffffffffffffffffffff1673ffffffffffffffffffffffffffffffffffffffff16815260200190815260200160002060030160009054906101000a900460ff1661104a576040517f08c379a000000000000000000000000000000000000000000000000000000000815260040180806020018281038252600a8152602001807f6e6f742066726f7a656e0000000000000000000000000000000000000000000081525060200191505060405180910390fd5b61105382610811565b43116110c7576040517f08c379a000000000000000000000000000000000000000000000000000000000815260040180806020018281038252601a8152602001807f6e6f742066726f7a656e20666f72206c6f6e6720656e6f75676800000000000081525060200191505060405180910390fd5b60019050919050565b6000600160008473ffffffffffffffffffffffffffffffffffffffff1673ffffffffffffffffffffffffffffffffffffffff16815260200190815260200160002060008373ffffffffffffffffffffffffffffffffffffffff1673ffffffffffffffffffffffffffffffffffffffff16815260200190815260200160002054905092915050565b6000308e8e8e8e8e8e8e8e8e8e8e604051602001808d73ffffffffffffffffffffffffffffffffffffffff1673ffffffffffffffffffffffffffffffffffffffff1660601b81526014018c63ffffffff1663ffffffff1660e01b81526004018b73ffffffffffffffffffffffffffffffffffffffff1673ffffffffffffffffffffffffffffffffffffffff1660601b81526014018a73ffffffffffffffffffffffffffffffffffffffff1673ffffffffffffffffffffffffffffffffffffffff1660601b81526014018973ffffffffffffffffffffffffffffffffffffffff1673ffffffffffffffffffffffffffffffffffffffff1660601b81526014018881526020018781526020018681526020018573ffffffffffffffffffffffffffffffffffffffff1673ffffffffffffffffffffffffffffffffffffffff1660601b81526014018473ffffffffffffffffffffffffffffffffffffffff1673ffffffffffffffffffffffffffffffffffffffff1660601b81526014018381526020018281526020019c50505050505050505050505050604051602081830303815290604052805190602001209050600115156002600083815260200190815260200160002060009054906101000a900460ff161515141561139e576040517f08c379a00000000000000000000000000000000000000000000000000000000081526004018080602001828103825260178152602001807f7377617020697320616c726561647920636c61696d656400000000000000000081525060200191505060405180910390fd5b438911611413576040517f08c379a000000000000000000000000000000000000000000000000000000000815260040180806020018281038252600f8152602001807f73776170206f732065787069726564000000000000000000000000000000000081525060200191505060405180910390fd5b61141c8d610ae0565b61148e576040517f08c379a00000000000000000000000000000000000000000000000000000000081526004018080602001828103825260178152602001807f6163636f756e7420697320696e207075726761746f727900000000000000000081525060200191505060405180910390fd5b6114998d8383611ad3565b61150b576040517f08c379a00000000000000000000000000000000000000000000000000000000081526004018080602001828103825260118152602001807f696e76616c6964207369676e617475726500000000000000000000000000000081525060200191505060405180910390fd5b6115198e8e8d8d8a8a611c03565b1561152457506117a8565b4384118061155d57508673ffffffffffffffffffffffffffffffffffffffff163373ffffffffffffffffffffffffffffffffffffffff16145b6115cf576040517f08c379a00000000000000000000000000000000000000000000000000000000081526004018080602001828103825260148152602001807f6e6f74207072696f726974792072656c6179657200000000000000000000000081525060200191505060405180910390fd5b87600284604051602001808281526020019150506040516020818303038152906040526040518082805190602001908083835b602083106116255780518252602082019150602081019050602083039250611602565b6001836020036101000a038019825116818451168082178552505050505050905001915050602060405180830381855afa158015611667573d6000803e3d6000fd5b5050506040513d602081101561167c57600080fd5b810190808051906020019092919050505014611700576040517f08c379a00000000000000000000000000000000000000000000000000000000081526004018080602001828103825260118152602001807f696e636f727265637420696e766f69636500000000000000000000000000000081525060200191505060405180910390fd5b8d6000808f73ffffffffffffffffffffffffffffffffffffffff1673ffffffffffffffffffffffffffffffffffffffff16815260200190815260200160002060000160006101000a81548163ffffffff021916908363ffffffff16021790555060016002600083815260200190815260200160002060006101000a81548160ff0219169083151502179055506117988d888888611d2b565b506117a58d8d8d8d611d2b565b50505b50505050505050505050505050565b60006117c233610f87565b611817576040517f08c379a00000000000000000000000000000000000000000000000000000000081526004018080602001828103825260298152602001806120da6029913960400191505060405180910390fd5b61182033610ae0565b611892576040517f08c379a00000000000000000000000000000000000000000000000000000000081526004018080602001828103825260158152602001807f796f752061726520696e207075726761746f727921000000000000000000000081525060200191505060405180910390fd5b81600160003373ffffffffffffffffffffffffffffffffffffffff1673ffffffffffffffffffffffffffffffffffffffff16815260200190815260200160002060008573ffffffffffffffffffffffffffffffffffffffff1673ffffffffffffffffffffffffffffffffffffffff168152602001908152602001600020541015611984576040517f08c379a00000000000000000000000000000000000000000000000000000000081526004018080602001828103825260128152602001807f6e6f7420656e6f7567682062616c616e6365000000000000000000000000000081525060200191505060405180910390fd5b600073ffffffffffffffffffffffffffffffffffffffff168373ffffffffffffffffffffffffffffffffffffffff161415611a05573373ffffffffffffffffffffffffffffffffffffffff166108fc839081150290604051600060405180830381858888f193505050501580156119ff573d6000803e3d6000fd5b50611ac9565b8273ffffffffffffffffffffffffffffffffffffffff1663a9059cbb33846040518363ffffffff1660e01b8152600401808373ffffffffffffffffffffffffffffffffffffffff1673ffffffffffffffffffffffffffffffffffffffff16815260200182815260200192505050602060405180830381600087803b158015611a8c57600080fd5b505af1158015611aa0573d6000803e3d6000fd5b505050506040513d6020811015611ab657600080fd5b8101908080519060200190929190505050505b6001905092915050565b600080611af184611ae385611f7d565b611fd590919063ffffffff16565b9050600073ffffffffffffffffffffffffffffffffffffffff168173ffffffffffffffffffffffffffffffffffffffff161415611b32576000915050611bfc565b8473ffffffffffffffffffffffffffffffffffffffff168173ffffffffffffffffffffffffffffffffffffffff161480611bf857506000808673ffffffffffffffffffffffffffffffffffffffff1673ffffffffffffffffffffffffffffffffffffffff16815260200190815260200160002060000160049054906101000a900473ffffffffffffffffffffffffffffffffffffffff1673ffffffffffffffffffffffffffffffffffffffff168173ffffffffffffffffffffffffffffffffffffffff16145b9150505b9392505050565b600080600090506000611c168888610de9565b90506000611c248987610de9565b905060016000808b73ffffffffffffffffffffffffffffffffffffffff1673ffffffffffffffffffffffffffffffffffffffff16815260200190815260200160002060000160009054906101000a900463ffffffff160163ffffffff168a63ffffffff1614611c9257600192505b86821015611c9f57600192505b84811015611cac57600192505b8215611d1b57436000808b73ffffffffffffffffffffffffffffffffffffffff1673ffffffffffffffffffffffffffffffffffffffff16815260200190815260200160002060010181905550611d088963deadbeef8a85611d2b565b50611d198963deadbeef8884611d2b565b505b8293505050509695505050505050565b600081600160008773ffffffffffffffffffffffffffffffffffffffff1673ffffffffffffffffffffffffffffffffffffffff16815260200190815260200160002060008573ffffffffffffffffffffffffffffffffffffffff1673ffffffffffffffffffffffffffffffffffffffff1681526020019081526020016000205403600160008773ffffffffffffffffffffffffffffffffffffffff1673ffffffffffffffffffffffffffffffffffffffff16815260200190815260200160002060008573ffffffffffffffffffffffffffffffffffffffff1673ffffffffffffffffffffffffffffffffffffffff16815260200190815260200160002081905550600073ffffffffffffffffffffffffffffffffffffffff168373ffffffffffffffffffffffffffffffffffffffff161415611ead578373ffffffffffffffffffffffffffffffffffffffff166108fc839081150290604051600060405180830381858888f19350505050158015611ea7573d6000803e3d6000fd5b50611f71565b8273ffffffffffffffffffffffffffffffffffffffff1663a9059cbb85846040518363ffffffff1660e01b8152600401808373ffffffffffffffffffffffffffffffffffffffff1673ffffffffffffffffffffffffffffffffffffffff16815260200182815260200192505050602060405180830381600087803b158015611f3457600080fd5b505af1158015611f48573d6000803e3d6000fd5b505050506040513d6020811015611f5e57600080fd5b8101908080519060200190929190505050505b60019050949350505050565b60008160405160200180807f19457468657265756d205369676e6564204d6573736167653a0a333200000000815250601c01828152602001915050604051602081830303815290604052805190602001209050919050565b60006041825114611fe957600090506120d3565b60008060006020850151925060408501519150606085015160001a90507f7fffffffffffffffffffffffffffffff5d576e7357a4501ddfe92f46681b20a08260001c111561203d57600093505050506120d3565b601b8160ff16141580156120555750601c8160ff1614155b1561206657600093505050506120d3565b60018682858560405160008152602001604052604051808581526020018460ff1660ff1681526020018381526020018281526020019450505050506020604051602081039080840390855afa1580156120c3573d6000803e3d6000fd5b5050506020604051035193505050505b9291505056fe6e6f7420636f6c6420656e6f7567683b20667265657a6520616e642f6f722077616974206120626974a265627a7a72315820f3f6d78c499d0ae3dced57e73c13a7068716cbb508739245fa7874fafebf861864736f6c63430005100032",
  "source": "pragma solidity >=0.4.25 <0.7.0;\n// TODO events etc\n\nimport \"@openzeppelin/contracts/cryptography/ECDSA.sol\";\nimport \"@openzeppelin/contracts/token/ERC20/ERC20.sol\";\n\ncontract MetaSwap {\n  using ECDSA for bytes32;\n\n  struct AccountDetails {\n    uint32 nonce;\n    address burnerWallet;\n    uint256 lastPurgatory;\n    uint256 lastFrozen;\n    bool isFrozen;\n  }\n\n  mapping (address => AccountDetails) accountDetails;\n  mapping (address => mapping (address => uint256)) balances;\n  mapping (bytes32 => bool) completedSwaps;\n\n  uint public constant claimWindowBlocks = 20; // 5 minutes\n  uint public constant frozenBuffer = 8; // 2 minutes\n  uint public constant maximumSpendProportion = 5; // maximum spend of asset per swap\n  uint public constant purgatoryDuration = 175000; // number of blocks funds get locked if you cheat (about 1 month)\n\n  function getBalance(address account, address asset) public view returns (uint value) {\n    return balances[account][asset];\n  }\n  function getBurnerWallet(address account) public view returns (address burnerWallet) {\n    return accountDetails[account].burnerWallet;\n  }\n  function coldEnoughBlock(address account) public view returns (uint blocknumber) {\n    return accountDetails[account].lastFrozen + claimWindowBlocks + frozenBuffer;\n  }\n  function isColdEnough(address account) public view  returns (bool coldEnough) {\n    // TODO use safe math\n    require(accountDetails[account].isFrozen, 'not frozen');\n    require(block.number > coldEnoughBlock(account), 'not frozen for long enough');\n    return true;\n  }\n  modifier frozen {\n    require(isColdEnough(msg.sender), 'not cold enough; freeze and/or wait a bit');\n    _;\n  }\n  function freeze() public returns (bool success) {\n    accountDetails[msg.sender].lastFrozen = block.number;\n    accountDetails[msg.sender].isFrozen = true;\n    return true;\n  }\n  function unFreeze() public frozen returns (bool success) {\n    accountDetails[msg.sender].isFrozen = false;\n    return true;\n  }\n  function notInPurgatory(address account) public view returns (bool) {\n    if (accountDetails[account].lastPurgatory == 0) {\n      return true;\n    }\n    return (block.number - accountDetails[account].lastPurgatory) > purgatoryDuration;\n  }\n  // update settings for this account\n  function configureAccount(address burnerWallet, bool done) public frozen returns (bool success) {\n    accountDetails[msg.sender].burnerWallet = burnerWallet;\n    if (done) {\n      unFreeze();\n    }\n    return true;\n  }\n  function withdraw(address asset, uint amount) public frozen returns (bool success) {\n    require(notInPurgatory(msg.sender), 'you are in purgatory!');\n    require(balances[msg.sender][asset] >= amount, 'not enough balance');\n    if (asset == address(0)) {\n      msg.sender.transfer(amount);\n    } else {\n      ERC20(asset).transfer(msg.sender, amount);\n    }\n    return true;\n  }\n  function depositToken(address asset, uint value) public returns (bool success) {\n    ERC20(asset).transferFrom(msg.sender, address(this), value);\n    balances[msg.sender][asset] = balances[msg.sender][asset] + value;\n    return true;\n  }\n  function depositEther() public payable returns (bool success) {\n    balances[msg.sender][address(0)] = balances[msg.sender][address(0)] + msg.value;\n    return true;\n  }\n\n  function signatureIsValid(address account, bytes memory signature, bytes32 swapHash) private view returns (bool success) {\n    address signer = swapHash.toEthSignedMessageHash().recover(signature);\n    if (signer == address(0)) {\n      return false;\n    }\n    return signer == account || signer == accountDetails[account].burnerWallet;\n  }\n\n  function transferFunds(address from, address payable to, address asset, uint amount) private returns (bool success) {\n    balances[from][asset] = balances[from][asset] - amount;\n    if (asset == address(0)) {\n      to.transfer(amount);\n    } else {\n      ERC20(asset).transfer(to, amount);\n    }\n    return true;\n  }\n\n  function calculateMaxSpend(address account, address asset) public view returns (uint maxSpend) {\n    return balances[account][asset] / maximumSpendProportion;\n  }\n\n  function isCheating(\n    uint32 nonce,\n    address account,\n    address asset,\n    uint amount,\n    address relayerAsset,\n    uint relayerAmount\n  ) private returns (bool) {\n    bool cheating = false;\n    uint maxSpend = calculateMaxSpend(account, asset);\n    uint relayMaxSpend = calculateMaxSpend(account, relayerAsset);\n    // if the nonce is invalid (trying to double spend)\n    if (nonce != accountDetails[account].nonce + 1) {\n      cheating = true;\n    }\n    // trying to spend too much\n    if (maxSpend < amount) {\n      cheating = true;\n    }\n    // trying to spend too much\n    if (relayMaxSpend < relayerAmount) {\n      cheating = true;\n    }\n    // punish!\n    if (cheating) {\n      accountDetails[account].lastPurgatory = block.number;\n      transferFunds(account, address(0xdeadbeef), asset, maxSpend);\n      transferFunds(account, address(0xdeadbeef), relayerAsset, relayMaxSpend);\n    }\n    return cheating;\n  }\n\n\tfunction swap(\n    uint32 nonce,\n    address account,\n    address payable receiver,\n    address asset,\n    uint256 amount,\n    uint256 expirationBlock,\n    bytes32 preImageHash,\n    address payable relayerAddress,\n    address relayerAsset,\n    uint256 relayerAmount,\n    uint256 relayerExpirationBlock,\n    bytes32 preImage,\n    bytes memory signature\n  ) public {\n    bytes32 swapHash = keccak256(abi.encodePacked(\n      address(this),\n      nonce,\n      account,\n      receiver,\n      asset,\n      amount,\n      expirationBlock,\n      preImageHash,\n      relayerAddress,\n      relayerAsset,\n      relayerAmount,\n      relayerExpirationBlock\n    ));\n    require(completedSwaps[swapHash] != true, 'swap is already claimed');\n    require(expirationBlock > block.number, 'swap os expired');\n    require(notInPurgatory(account), 'account is in purgatory');\n    require(signatureIsValid(account, signature, swapHash), 'invalid signature');\n    // check if cheating\n    if (isCheating(nonce, account, asset, amount, relayerAsset, relayerAmount)) {\n      return;\n    }\n    // give priority to relayer if within deadline\n    require(relayerExpirationBlock > block.number || msg.sender == relayerAddress, 'not priority relayer');\n    require(sha256(abi.encodePacked(preImage)) == preImageHash, 'incorrect invoice');\n    // validated!\n    accountDetails[account].nonce = nonce;\n    completedSwaps[swapHash] = true;\n    transferFunds(account, relayerAddress, relayerAsset, relayerAmount);\n    transferFunds(account, receiver, asset, amount);\n    return;\n  }\n}",
  "sourcePath": "/Users/cat/code/github/MetaSwap/contracts/contracts/MetaSwap.sol",
  "compiler": {
    "name": "solc",
    "version": "0.5.16+commit.9c3226ce.Emscripten.clang"
  },
  "schemaVersion": "3.0.23",
  "updatedAt": "2020-02-20T11:55:24.731Z",
  "networkType": "ethereum",
  "devdoc": {
    "methods": {}
  },
  "userdoc": {
    "methods": {}
  }
}