{
  "contractName": "MetaSwap",
  "abi": [
    {
      "constant": true,
      "inputs": [],
      "name": "getContractDetails",
      "outputs": [
        {
          "internalType": "uint256",
          "name": "claimWindow",
          "type": "uint256"
        },
        {
          "internalType": "uint256",
          "name": "cooldownBuffer",
          "type": "uint256"
        },
        {
          "internalType": "uint256",
          "name": "maximumSpend",
          "type": "uint256"
        },
        {
          "internalType": "address",
          "name": "etherAddress",
          "type": "address"
        },
        {
          "internalType": "address",
          "name": "burnAddress",
          "type": "address"
        }
      ],
      "payable": false,
      "stateMutability": "view",
      "type": "function"
    },
    {
      "constant": true,
      "inputs": [
        {
          "internalType": "address",
          "name": "_account",
          "type": "address"
        }
      ],
      "name": "getAccountDetails",
      "outputs": [
        {
          "internalType": "uint256",
          "name": "nonce",
          "type": "uint256"
        },
        {
          "internalType": "address",
          "name": "signerWallet",
          "type": "address"
        },
        {
          "internalType": "uint256",
          "name": "cooldownStart",
          "type": "uint256"
        },
        {
          "internalType": "bool",
          "name": "warmupTriggered",
          "type": "bool"
        },
        {
          "internalType": "uint256",
          "name": "frozenTime",
          "type": "uint256"
        },
        {
          "internalType": "bool",
          "name": "isFrozen",
          "type": "bool"
        }
      ],
      "payable": false,
      "stateMutability": "view",
      "type": "function"
    },
    {
      "constant": true,
      "inputs": [
        {
          "internalType": "address",
          "name": "_asset",
          "type": "address"
        },
        {
          "internalType": "address",
          "name": "_account",
          "type": "address"
        }
      ],
      "name": "getBalance",
      "outputs": [
        {
          "internalType": "uint256",
          "name": "balance",
          "type": "uint256"
        }
      ],
      "payable": false,
      "stateMutability": "view",
      "type": "function"
    },
    {
      "constant": true,
      "inputs": [
        {
          "internalType": "address",
          "name": "_account",
          "type": "address"
        }
      ],
      "name": "getFrozenTime",
      "outputs": [
        {
          "internalType": "uint256",
          "name": "frozenBlockNumber",
          "type": "uint256"
        }
      ],
      "payable": false,
      "stateMutability": "view",
      "type": "function"
    },
    {
      "constant": true,
      "inputs": [
        {
          "internalType": "address",
          "name": "_account",
          "type": "address"
        }
      ],
      "name": "getIsFrozen",
      "outputs": [
        {
          "internalType": "bool",
          "name": "isFrozen",
          "type": "bool"
        }
      ],
      "payable": false,
      "stateMutability": "view",
      "type": "function"
    },
    {
      "constant": true,
      "inputs": [
        {
          "internalType": "address",
          "name": "_account",
          "type": "address"
        },
        {
          "internalType": "bytes",
          "name": "_signature",
          "type": "bytes"
        },
        {
          "internalType": "bytes32",
          "name": "_messageHash",
          "type": "bytes32"
        }
      ],
      "name": "getSignatureIsValid",
      "outputs": [
        {
          "internalType": "bool",
          "name": "signatureIsValid",
          "type": "bool"
        }
      ],
      "payable": false,
      "stateMutability": "view",
      "type": "function"
    },
    {
      "constant": true,
      "inputs": [
        {
          "internalType": "address",
          "name": "_account",
          "type": "address"
        },
        {
          "internalType": "address",
          "name": "_asset",
          "type": "address"
        }
      ],
      "name": "getMaxSpend",
      "outputs": [
        {
          "internalType": "uint256",
          "name": "maxSpend",
          "type": "uint256"
        }
      ],
      "payable": false,
      "stateMutability": "view",
      "type": "function"
    },
    {
      "constant": true,
      "inputs": [
        {
          "internalType": "address[5]",
          "name": "_addressVals",
          "type": "address[5]"
        },
        {
          "internalType": "uint256[5]",
          "name": "_uintVals",
          "type": "uint256[5]"
        },
        {
          "internalType": "bytes32[2]",
          "name": "_bytes32Vals",
          "type": "bytes32[2]"
        }
      ],
      "name": "getMessageHash",
      "outputs": [
        {
          "internalType": "bytes32",
          "name": "_messageHash",
          "type": "bytes32"
        }
      ],
      "payable": false,
      "stateMutability": "view",
      "type": "function"
    },
    {
      "constant": false,
      "inputs": [],
      "name": "cooldown",
      "outputs": [
        {
          "internalType": "bool",
          "name": "success",
          "type": "bool"
        }
      ],
      "payable": false,
      "stateMutability": "nonpayable",
      "type": "function"
    },
    {
      "constant": false,
      "inputs": [],
      "name": "warmUp",
      "outputs": [
        {
          "internalType": "bool",
          "name": "success",
          "type": "bool"
        }
      ],
      "payable": false,
      "stateMutability": "nonpayable",
      "type": "function"
    },
    {
      "constant": false,
      "inputs": [
        {
          "internalType": "address",
          "name": "_signerWallet",
          "type": "address"
        },
        {
          "internalType": "bool",
          "name": "_done",
          "type": "bool"
        }
      ],
      "name": "configureAccount",
      "outputs": [
        {
          "internalType": "bool",
          "name": "success",
          "type": "bool"
        }
      ],
      "payable": false,
      "stateMutability": "nonpayable",
      "type": "function"
    },
    {
      "constant": false,
      "inputs": [
        {
          "internalType": "address",
          "name": "_asset",
          "type": "address"
        },
        {
          "internalType": "uint256",
          "name": "_amount",
          "type": "uint256"
        }
      ],
      "name": "withdraw",
      "outputs": [
        {
          "internalType": "bool",
          "name": "success",
          "type": "bool"
        }
      ],
      "payable": false,
      "stateMutability": "nonpayable",
      "type": "function"
    },
    {
      "constant": false,
      "inputs": [
        {
          "internalType": "address",
          "name": "_asset",
          "type": "address"
        },
        {
          "internalType": "uint256",
          "name": "_amount",
          "type": "uint256"
        }
      ],
      "name": "depositToken",
      "outputs": [
        {
          "internalType": "bool",
          "name": "success",
          "type": "bool"
        }
      ],
      "payable": false,
      "stateMutability": "nonpayable",
      "type": "function"
    },
    {
      "constant": false,
      "inputs": [],
      "name": "depositEther",
      "outputs": [
        {
          "internalType": "bool",
          "name": "success",
          "type": "bool"
        }
      ],
      "payable": true,
      "stateMutability": "payable",
      "type": "function"
    },
    {
      "constant": false,
      "inputs": [
        {
          "internalType": "address[5]",
          "name": "_addressVals",
          "type": "address[5]"
        },
        {
          "internalType": "uint256[5]",
          "name": "_uintVals",
          "type": "uint256[5]"
        },
        {
          "internalType": "bytes32[2]",
          "name": "_bytes32Vals",
          "type": "bytes32[2]"
        },
        {
          "internalType": "bytes",
          "name": "_signature",
          "type": "bytes"
        }
      ],
      "name": "swap",
      "outputs": [
        {
          "internalType": "bool",
          "name": "success",
          "type": "bool"
        }
      ],
      "payable": false,
      "stateMutability": "nonpayable",
      "type": "function"
    }
  ],
  "bytecode": "0x608060405234801561001057600080fd5b50612270806100206000396000f3fe6080604052600436106100e85760003560e01c80638f9b55781161008a578063ce40e8eb11610059578063ce40e8eb146106e7578063d4fac45d14610716578063f1273c8c1461079b578063f3fef3a31461093f576100e8565b80638f9b5578146104b857806398ea5fca1461051d5780639dfc91171461053f578063a405890e146105de576100e8565b80633b3833fb116100c65780633b3833fb14610326578063787a08a6146103ab57806384617d66146103da5780638546781f1461044f576100e8565b80631f106aad146100ed5780632aceb534146101f7578063338b5dea146102b3575b600080fd5b3480156100f957600080fd5b506101dd6004803603606081101561011057600080fd5b81019080803573ffffffffffffffffffffffffffffffffffffffff1690602001909291908035906020019064010000000081111561014d57600080fd5b82018360208201111561015f57600080fd5b8035906020019184600183028401116401000000008311171561018157600080fd5b91908080601f016020809104026020016040519081016040528093929190818152602001838380828437600081840152601f19601f820116905080830192505050505050509192919290803590602001909291905050506109b2565b604051808215151515815260200191505060405180910390f35b34801561020357600080fd5b506102466004803603602081101561021a57600080fd5b81019080803573ffffffffffffffffffffffffffffffffffffffff169060200190929190505050610ae2565b604051808781526020018673ffffffffffffffffffffffffffffffffffffffff1673ffffffffffffffffffffffffffffffffffffffff1681526020018581526020018415151515815260200183815260200182151515158152602001965050505050505060405180910390f35b3480156102bf57600080fd5b5061030c600480360360408110156102d657600080fd5b81019080803573ffffffffffffffffffffffffffffffffffffffff16906020019092919080359060200190929190505050610c47565b604051808215151515815260200191505060405180910390f35b34801561033257600080fd5b506103956004803603604081101561034957600080fd5b81019080803573ffffffffffffffffffffffffffffffffffffffff169060200190929190803573ffffffffffffffffffffffffffffffffffffffff169060200190929190505050610e49565b6040518082815260200191505060405180910390f35b3480156103b757600080fd5b506103c0610eda565b604051808215151515815260200191505060405180910390f35b3480156103e657600080fd5b50610435600480360360408110156103fd57600080fd5b81019080803573ffffffffffffffffffffffffffffffffffffffff169060200190929190803515159060200190929190505050610f83565b604051808215151515815260200191505060405180910390f35b34801561045b57600080fd5b5061049e6004803603602081101561047257600080fd5b81019080803573ffffffffffffffffffffffffffffffffffffffff16906020019092919050505061107d565b604051808215151515815260200191505060405180910390f35b3480156104c457600080fd5b50610507600480360360208110156104db57600080fd5b81019080803573ffffffffffffffffffffffffffffffffffffffff1690602001909291905050506110e9565b6040518082815260200191505060405180910390f35b61052561113b565b604051808215151515815260200191505060405180910390f35b34801561054b57600080fd5b50610554611243565b604051808681526020018581526020018481526020018373ffffffffffffffffffffffffffffffffffffffff1673ffffffffffffffffffffffffffffffffffffffff1681526020018273ffffffffffffffffffffffffffffffffffffffff1673ffffffffffffffffffffffffffffffffffffffff1681526020019550505050505060405180910390f35b3480156105ea57600080fd5b506106d1600480360361018081101561060257600080fd5b810190808060a001906005806020026040519081016040528092919082600560200280828437600081840152601f19601f82011690508083019250505050505091929192908060a001906005806020026040519081016040528092919082600560200280828437600081840152601f19601f820116905080830192505050505050919291929080604001906002806020026040519081016040528092919082600260200280828437600081840152601f19601f820116905080830192505050505050919291929050505061126b565b6040518082815260200191505060405180910390f35b3480156106f357600080fd5b506106fc6114ca565b604051808215151515815260200191505060405180910390f35b34801561072257600080fd5b506107856004803603604081101561073957600080fd5b81019080803573ffffffffffffffffffffffffffffffffffffffff169060200190929190803573ffffffffffffffffffffffffffffffffffffffff16906020019092919050505061158b565b6040518082815260200191505060405180910390f35b3480156107a757600080fd5b5061092560048036036101a08110156107bf57600080fd5b810190808060a001906005806020026040519081016040528092919082600560200280828437600081840152601f19601f82011690508083019250505050505091929192908060a001906005806020026040519081016040528092919082600560200280828437600081840152601f19601f820116905080830192505050505050919291929080604001906002806020026040519081016040528092919082600260200280828437600081840152601f19601f82011690508083019250505050505091929192908035906020019064010000000081111561089f57600080fd5b8201836020820111156108b157600080fd5b803590602001918460018302840111640100000000831117156108d357600080fd5b91908080601f016020809104026020016040519081016040528093929190818152602001838380828437600081840152601f19601f820116905080830192505050505050509192919290505050611612565b604051808215151515815260200191505060405180910390f35b34801561094b57600080fd5b506109986004803603604081101561096257600080fd5b81019080803573ffffffffffffffffffffffffffffffffffffffff16906020019092919080359060200190929190505050611658565b604051808215151515815260200191505060405180910390f35b6000806109d0846109c2856116cc565b61172490919063ffffffff16565b9050600073ffffffffffffffffffffffffffffffffffffffff168173ffffffffffffffffffffffffffffffffffffffff161415610a11576000915050610adb565b8473ffffffffffffffffffffffffffffffffffffffff168173ffffffffffffffffffffffffffffffffffffffff161480610ad757506000808673ffffffffffffffffffffffffffffffffffffffff1673ffffffffffffffffffffffffffffffffffffffff16815260200190815260200160002060010160009054906101000a900473ffffffffffffffffffffffffffffffffffffffff1673ffffffffffffffffffffffffffffffffffffffff168173ffffffffffffffffffffffffffffffffffffffff16145b9150505b9392505050565b6000806000806000806000808873ffffffffffffffffffffffffffffffffffffffff1673ffffffffffffffffffffffffffffffffffffffff168152602001908152602001600020600001546000808973ffffffffffffffffffffffffffffffffffffffff1673ffffffffffffffffffffffffffffffffffffffff16815260200190815260200160002060010160009054906101000a900473ffffffffffffffffffffffffffffffffffffffff166000808a73ffffffffffffffffffffffffffffffffffffffff1673ffffffffffffffffffffffffffffffffffffffff168152602001908152602001600020600201546000808b73ffffffffffffffffffffffffffffffffffffffff1673ffffffffffffffffffffffffffffffffffffffff16815260200190815260200160002060030160009054906101000a900460ff16610c298b6110e9565b610c328c61107d565b95509550955095509550955091939550919395565b60008273ffffffffffffffffffffffffffffffffffffffff166323b872dd3330856040518463ffffffff1660e01b8152600401808473ffffffffffffffffffffffffffffffffffffffff1673ffffffffffffffffffffffffffffffffffffffff1681526020018373ffffffffffffffffffffffffffffffffffffffff1673ffffffffffffffffffffffffffffffffffffffff1681526020018281526020019350505050602060405180830381600087803b158015610d0457600080fd5b505af1158015610d18573d6000803e3d6000fd5b505050506040513d6020811015610d2e57600080fd5b81019080805190602001909291905050505081600160003373ffffffffffffffffffffffffffffffffffffffff1673ffffffffffffffffffffffffffffffffffffffff16815260200190815260200160002060008573ffffffffffffffffffffffffffffffffffffffff1673ffffffffffffffffffffffffffffffffffffffff1681526020019081526020016000205401600160003373ffffffffffffffffffffffffffffffffffffffff1673ffffffffffffffffffffffffffffffffffffffff16815260200190815260200160002060008573ffffffffffffffffffffffffffffffffffffffff1673ffffffffffffffffffffffffffffffffffffffff168152602001908152602001600020819055506001905092915050565b60006005600160008573ffffffffffffffffffffffffffffffffffffffff1673ffffffffffffffffffffffffffffffffffffffff16815260200190815260200160002060008473ffffffffffffffffffffffffffffffffffffffff1673ffffffffffffffffffffffffffffffffffffffff1681526020019081526020016000205481610ed157fe5b04905092915050565b6000426000803373ffffffffffffffffffffffffffffffffffffffff1673ffffffffffffffffffffffffffffffffffffffff1681526020019081526020016000206002018190555060008060003373ffffffffffffffffffffffffffffffffffffffff1673ffffffffffffffffffffffffffffffffffffffff16815260200190815260200160002060030160006101000a81548160ff0219169083151502179055506001905090565b6000610f8e3361107d565b610fe3576040517f08c379a00000000000000000000000000000000000000000000000000000000081526004018080602001828103825260298152602001806122136029913960400191505060405180910390fd5b826000803373ffffffffffffffffffffffffffffffffffffffff1673ffffffffffffffffffffffffffffffffffffffff16815260200190815260200160002060010160006101000a81548173ffffffffffffffffffffffffffffffffffffffff021916908373ffffffffffffffffffffffffffffffffffffffff1602179055508115611073576110716114ca565b505b6001905092915050565b60008060008373ffffffffffffffffffffffffffffffffffffffff1673ffffffffffffffffffffffffffffffffffffffff16815260200190815260200160002060030160009054906101000a900460ff161580156110e257506110df826110e9565b42115b9050919050565b6000607861012c6000808573ffffffffffffffffffffffffffffffffffffffff1673ffffffffffffffffffffffffffffffffffffffff1681526020019081526020016000206002015401019050919050565b600034600160003373ffffffffffffffffffffffffffffffffffffffff1673ffffffffffffffffffffffffffffffffffffffff16815260200190815260200160002060008073ffffffffffffffffffffffffffffffffffffffff1673ffffffffffffffffffffffffffffffffffffffff1681526020019081526020016000205401600160003373ffffffffffffffffffffffffffffffffffffffff1673ffffffffffffffffffffffffffffffffffffffff16815260200190815260200160002060008073ffffffffffffffffffffffffffffffffffffffff1673ffffffffffffffffffffffffffffffffffffffff168152602001908152602001600020819055506001905090565b600080600080600061012c607860056000610bad809050945094509450945094509091929394565b6000308460006005811061127b57fe5b60200201518560016005811061128d57fe5b60200201518660026005811061129f57fe5b6020020151876003600581106112b157fe5b6020020151886004600581106112c357fe5b6020020151886000600581106112d557fe5b6020020151896001600581106112e757fe5b60200201518a6002600581106112f957fe5b60200201518b60036005811061130b57fe5b60200201518c60046005811061131d57fe5b60200201518c60006002811061132f57fe5b6020020151604051602001808d73ffffffffffffffffffffffffffffffffffffffff1673ffffffffffffffffffffffffffffffffffffffff1660601b81526014018c73ffffffffffffffffffffffffffffffffffffffff1673ffffffffffffffffffffffffffffffffffffffff1660601b81526014018b73ffffffffffffffffffffffffffffffffffffffff1673ffffffffffffffffffffffffffffffffffffffff1660601b81526014018a73ffffffffffffffffffffffffffffffffffffffff1673ffffffffffffffffffffffffffffffffffffffff1660601b81526014018973ffffffffffffffffffffffffffffffffffffffff1673ffffffffffffffffffffffffffffffffffffffff1660601b81526014018873ffffffffffffffffffffffffffffffffffffffff1673ffffffffffffffffffffffffffffffffffffffff1660601b81526014018781526020018681526020018581526020018481526020018381526020018281526020019c505050505050505050505050506040516020818303038152906040528051906020012090509392505050565b60006114d53361107d565b61152a576040517f08c379a00000000000000000000000000000000000000000000000000000000081526004018080602001828103825260298152602001806122136029913960400191505060405180910390fd5b60016000803373ffffffffffffffffffffffffffffffffffffffff1673ffffffffffffffffffffffffffffffffffffffff16815260200190815260200160002060030160006101000a81548160ff0219169083151502179055506001905090565b6000600160008373ffffffffffffffffffffffffffffffffffffffff1673ffffffffffffffffffffffffffffffffffffffff16815260200190815260200160002060008473ffffffffffffffffffffffffffffffffffffffff1673ffffffffffffffffffffffffffffffffffffffff16815260200190815260200160002054905092915050565b60008061162086868661126b565b905061162f8686868487611828565b61163d576000915050611650565b61164986868684611c1f565b5060019150505b949350505050565b60006116633361107d565b6116b8576040517f08c379a00000000000000000000000000000000000000000000000000000000081526004018080602001828103825260298152602001806122136029913960400191505060405180910390fd5b6116c433338585611d9d565b905092915050565b60008160405160200180807f19457468657265756d205369676e6564204d6573736167653a0a333200000000815250601c01828152602001915050604051602081830303815290604052805190602001209050919050565b600060418251146117385760009050611822565b60008060006020850151925060408501519150606085015160001a90507f7fffffffffffffffffffffffffffffff5d576e7357a4501ddfe92f46681b20a08260001c111561178c5760009350505050611822565b601b8160ff16141580156117a45750601c8160ff1614155b156117b55760009350505050611822565b60018682858560405160008152602001604052604051808581526020018460ff1660ff1681526020018381526020018281526020019450505050506020604051602081039080840390855afa158015611812573d6000803e3d6000fd5b5050506020604051035193505050505b92915050565b6000600115156002600085815260200190815260200160002060009054906101000a900460ff16151514156118c5576040517f08c379a00000000000000000000000000000000000000000000000000000000081526004018080602001828103825260178152602001807f7377617020697320616c726561647920636c61696d656400000000000000000081525060200191505060405180910390fd5b42856002600581106118d357fe5b60200201511161194b576040517f08c379a000000000000000000000000000000000000000000000000000000000815260040180806020018281038252600f8152602001807f73776170206f732065787069726564000000000000000000000000000000000081525060200191505060405180910390fd5b6119678660006005811061195b57fe5b602002015183856109b2565b6119d9576040517f08c379a00000000000000000000000000000000000000000000000000000000081526004018080602001828103825260118152602001807f696e76616c6964207369676e617475726500000000000000000000000000000081525060200191505060405180910390fd5b6119e38686612001565b156119f15760009050611c16565b42856004600581106119ff57fe5b60200201511180611a4c575085600360058110611a1857fe5b602002015173ffffffffffffffffffffffffffffffffffffffff163373ffffffffffffffffffffffffffffffffffffffff16145b611abe576040517f08c379a00000000000000000000000000000000000000000000000000000000081526004018080602001828103825260148152602001807f6e6f74207072696f726974792072656c6179657200000000000000000000000081525060200191505060405180910390fd5b83600060028110611acb57fe5b6020020151600285600160028110611adf57fe5b6020020151604051602001808281526020019150506040516020818303038152906040526040518082805190602001908083835b60208310611b365780518252602082019150602081019050602083039250611b13565b6001836020036101000a038019825116818451168082178552505050505050905001915050602060405180830381855afa158015611b78573d6000803e3d6000fd5b5050506040513d6020811015611b8d57600080fd5b810190808051906020019092919050505014611c11576040517f08c379a00000000000000000000000000000000000000000000000000000000081526004018080602001828103825260118152602001807f696e636f727265637420696e766f69636500000000000000000000000000000081525060200191505060405180910390fd5b600190505b95945050505050565b600083600060058110611c2e57fe5b602002015160008087600060058110611c4357fe5b602002015173ffffffffffffffffffffffffffffffffffffffff1673ffffffffffffffffffffffffffffffffffffffff1681526020019081526020016000206000018190555082600160028110611c9657fe5b60200201516003600085600060028110611cac57fe5b602002015181526020019081526020016000208190555060016002600084815260200190815260200160002060006101000a81548160ff021916908315150217905550611d3f85600060058110611cff57fe5b602002015186600160058110611d1157fe5b602002015187600260058110611d2357fe5b602002015187600160058110611d3557fe5b6020020151611d9d565b50611d9085600060058110611d5057fe5b602002015186600360058110611d6257fe5b602002015187600460058110611d7457fe5b602002015187600360058110611d8657fe5b6020020151611d9d565b5060019050949350505050565b600080821415611db05760009050611ff9565b81600160008773ffffffffffffffffffffffffffffffffffffffff1673ffffffffffffffffffffffffffffffffffffffff16815260200190815260200160002060008573ffffffffffffffffffffffffffffffffffffffff1673ffffffffffffffffffffffffffffffffffffffff1681526020019081526020016000205403600160008773ffffffffffffffffffffffffffffffffffffffff1673ffffffffffffffffffffffffffffffffffffffff16815260200190815260200160002060008573ffffffffffffffffffffffffffffffffffffffff1673ffffffffffffffffffffffffffffffffffffffff16815260200190815260200160002081905550600073ffffffffffffffffffffffffffffffffffffffff168373ffffffffffffffffffffffffffffffffffffffff161415611f30578373ffffffffffffffffffffffffffffffffffffffff166108fc839081150290604051600060405180830381858888f19350505050158015611f2a573d6000803e3d6000fd5b50611ff4565b8273ffffffffffffffffffffffffffffffffffffffff1663a9059cbb85846040518363ffffffff1660e01b8152600401808373ffffffffffffffffffffffffffffffffffffffff1673ffffffffffffffffffffffffffffffffffffffff16815260200182815260200192505050602060405180830381600087803b158015611fb757600080fd5b505af1158015611fcb573d6000803e3d6000fd5b505050506040513d6020811015611fe157600080fd5b8101908080519060200190929190505050505b600190505b949350505050565b6000806000905060006120368560006005811061201a57fe5b60200201518660026005811061202c57fe5b6020020151610e49565b905060006120668660006005811061204a57fe5b60200201518760046005811061205c57fe5b6020020151610e49565b905060016000808860006005811061207a57fe5b602002015173ffffffffffffffffffffffffffffffffffffffff1673ffffffffffffffffffffffffffffffffffffffff1681526020019081526020016000206000015401856000600581106120cb57fe5b6020020151146120da57600192505b846001600581106120e757fe5b60200201518210156120f857600192505b8460036005811061210557fe5b602002015181101561211657600192505b82156122065761214c8660006005811061212c57fe5b6020020151610bad8860036005811061214157fe5b602002015184611d9d565b506121a88660006005811061215d57fe5b6020020151610bad8860026005811061217257fe5b60200201516121a38a60026005811061218757fe5b60200201518b60006005811061219957fe5b602002015161158b565b611d9d565b50612204866000600581106121b957fe5b6020020151610bad886004600581106121ce57fe5b60200201516121ff8a6004600581106121e357fe5b60200201518b6000600581106121f557fe5b602002015161158b565b611d9d565b505b8293505050509291505056fe6e6f7420636f6c6420656e6f7567683b20667265657a6520616e642f6f722077616974206120626974a265627a7a72315820ca6036651ab324c049b9d4536af44a1eca2f8fc3537e12a586481778fbd8e25564736f6c63430005100032",
  "source": "pragma solidity >=0.5.16;\n\n// TODO fix the pagma in production\n// TODO events etc\n// TODO safemath\n// change block to timestamps\n\nimport \"@openzeppelin/contracts/cryptography/ECDSA.sol\";\nimport \"@openzeppelin/contracts/token/ERC20/ERC20.sol\";\n\ncontract MetaSwap {\n  using ECDSA for bytes32;\n\n  struct AccountDetails {\n    uint nonce;\n    address signerWallet;\n    uint cooldownStart;\n    bool warmupTriggered;\n  }\n\n  mapping (address => AccountDetails) _accountDetails;\n  mapping (address => mapping (address => uint)) _balances;\n  mapping (bytes32 => bool) _completedSwaps;\n  mapping (bytes32 => bytes32) _revealedHashes;\n\n  uint constant _claimWindow = 5 * 60; // 5 minutes\n  uint constant _cooldownBuffer = 2 * 60; // 2 minutes\n  uint constant _maximumSpend = 5; // maximum spend of asset per swap (balance / maximumSpend)\n  address constant _etherAddress = address(0);\n  address payable constant _burnAddress = address(0xbad);\n\n  modifier frozen {\n    require(getIsFrozen(msg.sender), 'not cold enough; freeze and/or wait a bit');\n    _;\n  }\n\n  function getContractDetails() public view returns (\n    uint claimWindow,\n    uint cooldownBuffer,\n    uint maximumSpend,\n    address etherAddress,\n    address burnAddress\n  ) {\n    return (\n      _claimWindow,\n      _cooldownBuffer,\n      _maximumSpend,\n      _etherAddress,\n      _burnAddress\n    );\n  }\n\n  function getAccountDetails(address _account) public view returns (\n    uint nonce,\n    address signerWallet,\n    uint cooldownStart,\n    bool warmupTriggered,\n    uint frozenTime,\n    bool isFrozen\n  ) {\n    return (\n      _accountDetails[_account].nonce,\n      _accountDetails[_account].signerWallet,\n      _accountDetails[_account].cooldownStart,\n      _accountDetails[_account].warmupTriggered,\n      getFrozenTime(_account),\n      getIsFrozen(_account)\n    );\n  }\n\n  function getBalance(address _asset, address _account) public view returns (uint balance) {\n    return _balances[_account][_asset];\n  }\n\n  function getFrozenTime(address _account) public view returns (uint frozenBlockNumber) {\n    return _accountDetails[_account].cooldownStart + _claimWindow + _cooldownBuffer;\n  }\n\n  function getIsFrozen(address _account) public view returns (bool isFrozen) {\n    return !_accountDetails[_account].warmupTriggered && block.timestamp > getFrozenTime(_account);\n  }\n\n  function getSignatureIsValid(address _account, bytes memory _signature, bytes32 _messageHash) public view returns (bool signatureIsValid) {\n    address signer = _messageHash.toEthSignedMessageHash().recover(_signature);\n    if (signer == address(0)) {\n      return false;\n    }\n    return signer == _account || signer == _accountDetails[_account].signerWallet;\n  }\n\n  function getMaxSpend(address _account, address _asset) public view returns (uint maxSpend) {\n    return _balances[_account][_asset] / _maximumSpend;\n  }\n\n  function getMessageHash(\n    address[5] memory _addressVals,\n    uint[5] memory _uintVals,\n    bytes32[2] memory _bytes32Vals\n  ) public view returns (bytes32 _messageHash) {\n    return keccak256(abi.encodePacked(\n      address(this),\n      _addressVals[0], // account\n      _addressVals[1], // receiver\n      _addressVals[2], // asset\n      _addressVals[3], // relayerAddress\n      _addressVals[4], // relayerAsset\n      _uintVals[0], // nonce\n      _uintVals[1], // amount\n      _uintVals[2], // expiration\n      _uintVals[3], // relayerAmount\n      _uintVals[4], // relayerExpiration\n      _bytes32Vals[0] // preImageHash\n      // _bytes32Vals[1], // preImage\n    ));\n  }\n\n  function cooldown() public returns (bool success) {\n    _accountDetails[msg.sender].cooldownStart = block.timestamp;\n    _accountDetails[msg.sender].warmupTriggered = false;\n    return true;\n  }\n\n  function warmUp() public frozen returns (bool success) {\n    _accountDetails[msg.sender].warmupTriggered = true;\n    return true;\n  }\n\n  function configureAccount(address _signerWallet, bool _done) public frozen returns (bool success) {\n    _accountDetails[msg.sender].signerWallet = _signerWallet;\n    if (_done) {\n      warmUp();\n    }\n    return true;\n  }\n\n  function withdraw(address _asset, uint _amount) public frozen returns (bool success) {\n    return transferFunds(msg.sender, msg.sender, _asset, _amount);\n  }\n\n  function depositToken(address _asset, uint _amount) public returns (bool success) {\n    // todo safe match etc\n    ERC20(_asset).transferFrom(msg.sender, address(this), _amount);\n    _balances[msg.sender][_asset] = _balances[msg.sender][_asset] + _amount;\n    return true;\n  }\n\n  function depositEther() public payable returns (bool success) {\n    _balances[msg.sender][_etherAddress] = _balances[msg.sender][_etherAddress] + msg.value;\n    return true;\n  }\n\n  function transferFunds(address _from, address payable _to, address _asset, uint _amount) private returns (bool success) {\n    if (_amount == 0) {\n      return false;\n    }\n    // TODO use safemath\n    _balances[_from][_asset] = _balances[_from][_asset] - _amount;\n    if (_asset == _etherAddress) {\n      _to.transfer(_amount);\n    } else {\n      // TODO, ensure that we can actually do this - we dont want to revert and avoid punishing\n      ERC20(_asset).transfer(_to, _amount);\n    }\n    return true;\n  }\n\n  function punishDishonest(\n    address[5] memory _addressVals,\n    uint[5] memory _uintVals\n  ) private returns (bool wasPunished) {\n    bool punish = false;\n    uint maxSpend = getMaxSpend(_addressVals[0], _addressVals[2]);\n    uint relayMaxSpend = getMaxSpend(_addressVals[0], _addressVals[4]);\n    // // if the nonce is invalid (trying to double spend)\n    if (_uintVals[0] != _accountDetails[_addressVals[0]].nonce + 1) {\n      punish = true;\n    }\n    // trying to spend too much\n    if (maxSpend < _uintVals[1]) {\n      punish = true;\n    }\n    // trying to spend too much\n    if (relayMaxSpend < _uintVals[3]) {\n      punish = true;\n    }\n    // punish!\n    if (punish) {\n      // TODO insert a more clever punishemnent system\n      transferFunds(_addressVals[0], _burnAddress, address(uint160(_addressVals[3])), relayMaxSpend);\n      transferFunds(_addressVals[0], _burnAddress, _addressVals[2], getBalance(_addressVals[2],_addressVals[0]));\n      transferFunds(_addressVals[0], _burnAddress, _addressVals[4], getBalance(_addressVals[4],_addressVals[0]));\n    }\n    return punish;\n  }\n\n  function validateSwap(\n    address[5] memory _addressVals,\n    uint[5] memory _uintVals,\n    bytes32[2] memory _bytes32Vals,\n    bytes32 _messageHash,\n    bytes memory _signature\n  ) private returns (bool success) {\n    require(_completedSwaps[_messageHash] != true, 'swap is already claimed');\n    require(_uintVals[2] > block.timestamp, 'swap os expired');\n    require(getSignatureIsValid(_addressVals[0], _signature, _messageHash), 'invalid signature');\n    if (punishDishonest(_addressVals, _uintVals)) {\n      return false;\n    }\n    require(_uintVals[4] > block.timestamp || msg.sender == _addressVals[3], 'not priority relayer');\n    require(sha256(abi.encodePacked(_bytes32Vals[1])) == _bytes32Vals[0], 'incorrect invoice');\n    return true;\n  }\n\n  function completeSwap(\n    address[5] memory _addressVals,\n    uint[5] memory _uintVals,\n    bytes32[2] memory _bytes32Vals,\n    bytes32 _messageHash\n  ) private returns (bool _success) {\n    _accountDetails[_addressVals[0]].nonce = _uintVals[0];\n    _revealedHashes[_bytes32Vals[0]] = _bytes32Vals[1];\n    _completedSwaps[_messageHash] = true;\n    transferFunds(_addressVals[0], address(uint160(_addressVals[1])), _addressVals[2], _uintVals[1]);\n    transferFunds(_addressVals[0], address(uint160(_addressVals[3])), _addressVals[4], _uintVals[3]);\n    return true;\n  }\n\n\tfunction swap(\n    address[5] memory _addressVals, // preimageHash, preImage\n    uint[5] memory _uintVals, // nonce, amount, expirationBlock, relayerAmount, relayerExpirationBlock\n    bytes32[2] memory _bytes32Vals, // preImageHash , preImage\n    bytes memory _signature\n  ) public returns (bool success) {\n    bytes32 messageHash = getMessageHash(_addressVals, _uintVals, _bytes32Vals);\n    if (!validateSwap(_addressVals, _uintVals, _bytes32Vals, messageHash, _signature)) {\n      return false;\n    }\n    completeSwap(_addressVals, _uintVals, _bytes32Vals, messageHash);\n    return true;\n  }\n}",
  "sourcePath": "/Users/cat/code/github/MetaSwap/contracts/contracts/MetaSwap.sol",
  "compiler": {
    "name": "solc",
    "version": "0.5.16+commit.9c3226ce.Emscripten.clang"
  },
  "schemaVersion": "3.0.23",
  "updatedAt": "2020-02-22T09:47:05.326Z",
  "networkType": "ethereum",
  "devdoc": {
    "methods": {}
  },
  "userdoc": {
    "methods": {}
  }
}