{
  "contractName": "MetaSwap",
  "abi": [
    {
      "constant": true,
      "inputs": [],
      "name": "getContractDetails",
      "outputs": [
        {
          "internalType": "uint256",
          "name": "cooldownTime",
          "type": "uint256"
        },
        {
          "internalType": "uint256",
          "name": "maximumSpend",
          "type": "uint256"
        },
        {
          "internalType": "address",
          "name": "etherAddress",
          "type": "address"
        },
        {
          "internalType": "address",
          "name": "burnAddress",
          "type": "address"
        }
      ],
      "payable": false,
      "stateMutability": "view",
      "type": "function"
    },
    {
      "constant": true,
      "inputs": [
        {
          "internalType": "address",
          "name": "_account",
          "type": "address"
        }
      ],
      "name": "getAccountDetails",
      "outputs": [
        {
          "internalType": "uint256",
          "name": "nonce",
          "type": "uint256"
        },
        {
          "internalType": "address",
          "name": "signerWallet",
          "type": "address"
        },
        {
          "internalType": "uint256",
          "name": "cooldownStart",
          "type": "uint256"
        },
        {
          "internalType": "bool",
          "name": "warmupTriggered",
          "type": "bool"
        },
        {
          "internalType": "uint256",
          "name": "frozenTime",
          "type": "uint256"
        },
        {
          "internalType": "bool",
          "name": "isFrozen",
          "type": "bool"
        }
      ],
      "payable": false,
      "stateMutability": "view",
      "type": "function"
    },
    {
      "constant": true,
      "inputs": [
        {
          "internalType": "address",
          "name": "_asset",
          "type": "address"
        },
        {
          "internalType": "address",
          "name": "_account",
          "type": "address"
        }
      ],
      "name": "getBalance",
      "outputs": [
        {
          "internalType": "uint256",
          "name": "balance",
          "type": "uint256"
        }
      ],
      "payable": false,
      "stateMutability": "view",
      "type": "function"
    },
    {
      "constant": true,
      "inputs": [
        {
          "internalType": "address",
          "name": "_account",
          "type": "address"
        }
      ],
      "name": "getFrozenTime",
      "outputs": [
        {
          "internalType": "uint256",
          "name": "frozenBlockNumber",
          "type": "uint256"
        }
      ],
      "payable": false,
      "stateMutability": "view",
      "type": "function"
    },
    {
      "constant": true,
      "inputs": [
        {
          "internalType": "address",
          "name": "_account",
          "type": "address"
        }
      ],
      "name": "getIsFrozen",
      "outputs": [
        {
          "internalType": "bool",
          "name": "isFrozen",
          "type": "bool"
        }
      ],
      "payable": false,
      "stateMutability": "view",
      "type": "function"
    },
    {
      "constant": true,
      "inputs": [
        {
          "internalType": "address",
          "name": "_account",
          "type": "address"
        },
        {
          "internalType": "bytes",
          "name": "_signature",
          "type": "bytes"
        },
        {
          "internalType": "bytes32",
          "name": "_messageHash",
          "type": "bytes32"
        }
      ],
      "name": "getSignatureIsValid",
      "outputs": [
        {
          "internalType": "bool",
          "name": "signatureIsValid",
          "type": "bool"
        }
      ],
      "payable": false,
      "stateMutability": "view",
      "type": "function"
    },
    {
      "constant": true,
      "inputs": [
        {
          "internalType": "address",
          "name": "_account",
          "type": "address"
        },
        {
          "internalType": "address",
          "name": "_asset",
          "type": "address"
        }
      ],
      "name": "getMaxSpend",
      "outputs": [
        {
          "internalType": "uint256",
          "name": "maxSpend",
          "type": "uint256"
        }
      ],
      "payable": false,
      "stateMutability": "view",
      "type": "function"
    },
    {
      "constant": true,
      "inputs": [
        {
          "internalType": "address[5]",
          "name": "_addressVals",
          "type": "address[5]"
        },
        {
          "internalType": "uint256[5]",
          "name": "_uintVals",
          "type": "uint256[5]"
        },
        {
          "internalType": "bytes32[2]",
          "name": "_bytes32Vals",
          "type": "bytes32[2]"
        }
      ],
      "name": "getMessageHash",
      "outputs": [
        {
          "internalType": "bytes32",
          "name": "messageHash",
          "type": "bytes32"
        }
      ],
      "payable": false,
      "stateMutability": "view",
      "type": "function"
    },
    {
      "constant": false,
      "inputs": [],
      "name": "cooldown",
      "outputs": [
        {
          "internalType": "bool",
          "name": "success",
          "type": "bool"
        }
      ],
      "payable": false,
      "stateMutability": "nonpayable",
      "type": "function"
    },
    {
      "constant": false,
      "inputs": [],
      "name": "warmUp",
      "outputs": [
        {
          "internalType": "bool",
          "name": "success",
          "type": "bool"
        }
      ],
      "payable": false,
      "stateMutability": "nonpayable",
      "type": "function"
    },
    {
      "constant": false,
      "inputs": [
        {
          "internalType": "address",
          "name": "_signerWallet",
          "type": "address"
        },
        {
          "internalType": "bool",
          "name": "_done",
          "type": "bool"
        }
      ],
      "name": "configureAccount",
      "outputs": [
        {
          "internalType": "bool",
          "name": "success",
          "type": "bool"
        }
      ],
      "payable": false,
      "stateMutability": "nonpayable",
      "type": "function"
    },
    {
      "constant": false,
      "inputs": [
        {
          "internalType": "address",
          "name": "_asset",
          "type": "address"
        },
        {
          "internalType": "uint256",
          "name": "_amount",
          "type": "uint256"
        }
      ],
      "name": "withdraw",
      "outputs": [
        {
          "internalType": "bool",
          "name": "success",
          "type": "bool"
        }
      ],
      "payable": false,
      "stateMutability": "nonpayable",
      "type": "function"
    },
    {
      "constant": false,
      "inputs": [
        {
          "internalType": "address",
          "name": "_asset",
          "type": "address"
        },
        {
          "internalType": "uint256",
          "name": "_amount",
          "type": "uint256"
        }
      ],
      "name": "depositToken",
      "outputs": [
        {
          "internalType": "bool",
          "name": "success",
          "type": "bool"
        }
      ],
      "payable": false,
      "stateMutability": "nonpayable",
      "type": "function"
    },
    {
      "constant": false,
      "inputs": [],
      "name": "depositEther",
      "outputs": [
        {
          "internalType": "bool",
          "name": "success",
          "type": "bool"
        }
      ],
      "payable": true,
      "stateMutability": "payable",
      "type": "function"
    },
    {
      "constant": false,
      "inputs": [
        {
          "internalType": "address[5]",
          "name": "_addressVals",
          "type": "address[5]"
        },
        {
          "internalType": "uint256[5]",
          "name": "_uintVals",
          "type": "uint256[5]"
        },
        {
          "internalType": "bytes32[2]",
          "name": "_bytes32Vals",
          "type": "bytes32[2]"
        },
        {
          "internalType": "bytes",
          "name": "_signature",
          "type": "bytes"
        }
      ],
      "name": "swap",
      "outputs": [
        {
          "internalType": "bool",
          "name": "success",
          "type": "bool"
        }
      ],
      "payable": false,
      "stateMutability": "nonpayable",
      "type": "function"
    }
  ],
  "bytecode": "0x608060405234801561001057600080fd5b5061225f806100206000396000f3fe6080604052600436106100e85760003560e01c80638f9b55781161008a578063ce40e8eb11610059578063ce40e8eb146106e0578063d4fac45d1461070f578063f1273c8c14610794578063f3fef3a314610938576100e8565b80638f9b5578146104b857806398ea5fca1461051d5780639dfc91171461053f578063a405890e146105d7576100e8565b80633b3833fb116100c65780633b3833fb14610326578063787a08a6146103ab57806384617d66146103da5780638546781f1461044f576100e8565b80631f106aad146100ed5780632aceb534146101f7578063338b5dea146102b3575b600080fd5b3480156100f957600080fd5b506101dd6004803603606081101561011057600080fd5b81019080803573ffffffffffffffffffffffffffffffffffffffff1690602001909291908035906020019064010000000081111561014d57600080fd5b82018360208201111561015f57600080fd5b8035906020019184600183028401116401000000008311171561018157600080fd5b91908080601f016020809104026020016040519081016040528093929190818152602001838380828437600081840152601f19601f820116905080830192505050505050509192919290803590602001909291905050506109ab565b604051808215151515815260200191505060405180910390f35b34801561020357600080fd5b506102466004803603602081101561021a57600080fd5b81019080803573ffffffffffffffffffffffffffffffffffffffff169060200190929190505050610adb565b604051808781526020018673ffffffffffffffffffffffffffffffffffffffff1673ffffffffffffffffffffffffffffffffffffffff1681526020018581526020018415151515815260200183815260200182151515158152602001965050505050505060405180910390f35b3480156102bf57600080fd5b5061030c600480360360408110156102d657600080fd5b81019080803573ffffffffffffffffffffffffffffffffffffffff16906020019092919080359060200190929190505050610c40565b604051808215151515815260200191505060405180910390f35b34801561033257600080fd5b506103956004803603604081101561034957600080fd5b81019080803573ffffffffffffffffffffffffffffffffffffffff169060200190929190803573ffffffffffffffffffffffffffffffffffffffff169060200190929190505050610e42565b6040518082815260200191505060405180910390f35b3480156103b757600080fd5b506103c0610ed3565b604051808215151515815260200191505060405180910390f35b3480156103e657600080fd5b50610435600480360360408110156103fd57600080fd5b81019080803573ffffffffffffffffffffffffffffffffffffffff169060200190929190803515159060200190929190505050610f7c565b604051808215151515815260200191505060405180910390f35b34801561045b57600080fd5b5061049e6004803603602081101561047257600080fd5b81019080803573ffffffffffffffffffffffffffffffffffffffff169060200190929190505050611076565b604051808215151515815260200191505060405180910390f35b3480156104c457600080fd5b50610507600480360360208110156104db57600080fd5b81019080803573ffffffffffffffffffffffffffffffffffffffff1690602001909291905050506110e2565b6040518082815260200191505060405180910390f35b610525611131565b604051808215151515815260200191505060405180910390f35b34801561054b57600080fd5b50610554611239565b604051808581526020018481526020018373ffffffffffffffffffffffffffffffffffffffff1673ffffffffffffffffffffffffffffffffffffffff1681526020018273ffffffffffffffffffffffffffffffffffffffff1673ffffffffffffffffffffffffffffffffffffffff16815260200194505050505060405180910390f35b3480156105e357600080fd5b506106ca60048036036101808110156105fb57600080fd5b810190808060a001906005806020026040519081016040528092919082600560200280828437600081840152601f19601f82011690508083019250505050505091929192908060a001906005806020026040519081016040528092919082600560200280828437600081840152601f19601f820116905080830192505050505050919291929080604001906002806020026040519081016040528092919082600260200280828437600081840152601f19601f820116905080830192505050505050919291929050505061125a565b6040518082815260200191505060405180910390f35b3480156106ec57600080fd5b506106f56114b9565b604051808215151515815260200191505060405180910390f35b34801561071b57600080fd5b5061077e6004803603604081101561073257600080fd5b81019080803573ffffffffffffffffffffffffffffffffffffffff169060200190929190803573ffffffffffffffffffffffffffffffffffffffff16906020019092919050505061157a565b6040518082815260200191505060405180910390f35b3480156107a057600080fd5b5061091e60048036036101a08110156107b857600080fd5b810190808060a001906005806020026040519081016040528092919082600560200280828437600081840152601f19601f82011690508083019250505050505091929192908060a001906005806020026040519081016040528092919082600560200280828437600081840152601f19601f820116905080830192505050505050919291929080604001906002806020026040519081016040528092919082600260200280828437600081840152601f19601f82011690508083019250505050505091929192908035906020019064010000000081111561089857600080fd5b8201836020820111156108aa57600080fd5b803590602001918460018302840111640100000000831117156108cc57600080fd5b91908080601f016020809104026020016040519081016040528093929190818152602001838380828437600081840152601f19601f820116905080830192505050505050509192919290505050611601565b604051808215151515815260200191505060405180910390f35b34801561094457600080fd5b506109916004803603604081101561095b57600080fd5b81019080803573ffffffffffffffffffffffffffffffffffffffff16906020019092919080359060200190929190505050611647565b604051808215151515815260200191505060405180910390f35b6000806109c9846109bb856116bb565b61171390919063ffffffff16565b9050600073ffffffffffffffffffffffffffffffffffffffff168173ffffffffffffffffffffffffffffffffffffffff161415610a0a576000915050610ad4565b8473ffffffffffffffffffffffffffffffffffffffff168173ffffffffffffffffffffffffffffffffffffffff161480610ad057506000808673ffffffffffffffffffffffffffffffffffffffff1673ffffffffffffffffffffffffffffffffffffffff16815260200190815260200160002060010160009054906101000a900473ffffffffffffffffffffffffffffffffffffffff1673ffffffffffffffffffffffffffffffffffffffff168173ffffffffffffffffffffffffffffffffffffffff16145b9150505b9392505050565b6000806000806000806000808873ffffffffffffffffffffffffffffffffffffffff1673ffffffffffffffffffffffffffffffffffffffff168152602001908152602001600020600001546000808973ffffffffffffffffffffffffffffffffffffffff1673ffffffffffffffffffffffffffffffffffffffff16815260200190815260200160002060010160009054906101000a900473ffffffffffffffffffffffffffffffffffffffff166000808a73ffffffffffffffffffffffffffffffffffffffff1673ffffffffffffffffffffffffffffffffffffffff168152602001908152602001600020600201546000808b73ffffffffffffffffffffffffffffffffffffffff1673ffffffffffffffffffffffffffffffffffffffff16815260200190815260200160002060030160009054906101000a900460ff16610c228b6110e2565b610c2b8c611076565b95509550955095509550955091939550919395565b60008273ffffffffffffffffffffffffffffffffffffffff166323b872dd3330856040518463ffffffff1660e01b8152600401808473ffffffffffffffffffffffffffffffffffffffff1673ffffffffffffffffffffffffffffffffffffffff1681526020018373ffffffffffffffffffffffffffffffffffffffff1673ffffffffffffffffffffffffffffffffffffffff1681526020018281526020019350505050602060405180830381600087803b158015610cfd57600080fd5b505af1158015610d11573d6000803e3d6000fd5b505050506040513d6020811015610d2757600080fd5b81019080805190602001909291905050505081600160003373ffffffffffffffffffffffffffffffffffffffff1673ffffffffffffffffffffffffffffffffffffffff16815260200190815260200160002060008573ffffffffffffffffffffffffffffffffffffffff1673ffffffffffffffffffffffffffffffffffffffff1681526020019081526020016000205401600160003373ffffffffffffffffffffffffffffffffffffffff1673ffffffffffffffffffffffffffffffffffffffff16815260200190815260200160002060008573ffffffffffffffffffffffffffffffffffffffff1673ffffffffffffffffffffffffffffffffffffffff168152602001908152602001600020819055506001905092915050565b60006005600160008573ffffffffffffffffffffffffffffffffffffffff1673ffffffffffffffffffffffffffffffffffffffff16815260200190815260200160002060008473ffffffffffffffffffffffffffffffffffffffff1673ffffffffffffffffffffffffffffffffffffffff1681526020019081526020016000205481610eca57fe5b04905092915050565b6000426000803373ffffffffffffffffffffffffffffffffffffffff1673ffffffffffffffffffffffffffffffffffffffff1681526020019081526020016000206002018190555060008060003373ffffffffffffffffffffffffffffffffffffffff1673ffffffffffffffffffffffffffffffffffffffff16815260200190815260200160002060030160006101000a81548160ff0219169083151502179055506001905090565b6000610f8733611076565b610fdc576040517f08c379a00000000000000000000000000000000000000000000000000000000081526004018080602001828103825260298152602001806122026029913960400191505060405180910390fd5b826000803373ffffffffffffffffffffffffffffffffffffffff1673ffffffffffffffffffffffffffffffffffffffff16815260200190815260200160002060010160006101000a81548173ffffffffffffffffffffffffffffffffffffffff021916908373ffffffffffffffffffffffffffffffffffffffff160217905550811561106c5761106a6114b9565b505b6001905092915050565b60008060008373ffffffffffffffffffffffffffffffffffffffff1673ffffffffffffffffffffffffffffffffffffffff16815260200190815260200160002060030160009054906101000a900460ff161580156110db57506110d8826110e2565b42115b9050919050565b600061012c6000808473ffffffffffffffffffffffffffffffffffffffff1673ffffffffffffffffffffffffffffffffffffffff16815260200190815260200160002060020154019050919050565b600034600160003373ffffffffffffffffffffffffffffffffffffffff1673ffffffffffffffffffffffffffffffffffffffff16815260200190815260200160002060008073ffffffffffffffffffffffffffffffffffffffff1673ffffffffffffffffffffffffffffffffffffffff1681526020019081526020016000205401600160003373ffffffffffffffffffffffffffffffffffffffff1673ffffffffffffffffffffffffffffffffffffffff16815260200190815260200160002060008073ffffffffffffffffffffffffffffffffffffffff1673ffffffffffffffffffffffffffffffffffffffff168152602001908152602001600020819055506001905090565b60008060008061012c60056000610bad809050935093509350935090919293565b6000308460006005811061126a57fe5b60200201518560016005811061127c57fe5b60200201518660026005811061128e57fe5b6020020151876003600581106112a057fe5b6020020151886004600581106112b257fe5b6020020151886000600581106112c457fe5b6020020151896001600581106112d657fe5b60200201518a6002600581106112e857fe5b60200201518b6003600581106112fa57fe5b60200201518c60046005811061130c57fe5b60200201518c60006002811061131e57fe5b6020020151604051602001808d73ffffffffffffffffffffffffffffffffffffffff1673ffffffffffffffffffffffffffffffffffffffff1660601b81526014018c73ffffffffffffffffffffffffffffffffffffffff1673ffffffffffffffffffffffffffffffffffffffff1660601b81526014018b73ffffffffffffffffffffffffffffffffffffffff1673ffffffffffffffffffffffffffffffffffffffff1660601b81526014018a73ffffffffffffffffffffffffffffffffffffffff1673ffffffffffffffffffffffffffffffffffffffff1660601b81526014018973ffffffffffffffffffffffffffffffffffffffff1673ffffffffffffffffffffffffffffffffffffffff1660601b81526014018873ffffffffffffffffffffffffffffffffffffffff1673ffffffffffffffffffffffffffffffffffffffff1660601b81526014018781526020018681526020018581526020018481526020018381526020018281526020019c505050505050505050505050506040516020818303038152906040528051906020012090509392505050565b60006114c433611076565b611519576040517f08c379a00000000000000000000000000000000000000000000000000000000081526004018080602001828103825260298152602001806122026029913960400191505060405180910390fd5b60016000803373ffffffffffffffffffffffffffffffffffffffff1673ffffffffffffffffffffffffffffffffffffffff16815260200190815260200160002060030160006101000a81548160ff0219169083151502179055506001905090565b6000600160008373ffffffffffffffffffffffffffffffffffffffff1673ffffffffffffffffffffffffffffffffffffffff16815260200190815260200160002060008473ffffffffffffffffffffffffffffffffffffffff1673ffffffffffffffffffffffffffffffffffffffff16815260200190815260200160002054905092915050565b60008061160f86868661125a565b905061161e8686868487611817565b61162c57600091505061163f565b61163886868684611c0e565b5060019150505b949350505050565b600061165233611076565b6116a7576040517f08c379a00000000000000000000000000000000000000000000000000000000081526004018080602001828103825260298152602001806122026029913960400191505060405180910390fd5b6116b333338585611d8c565b905092915050565b60008160405160200180807f19457468657265756d205369676e6564204d6573736167653a0a333200000000815250601c01828152602001915050604051602081830303815290604052805190602001209050919050565b600060418251146117275760009050611811565b60008060006020850151925060408501519150606085015160001a90507f7fffffffffffffffffffffffffffffff5d576e7357a4501ddfe92f46681b20a08260001c111561177b5760009350505050611811565b601b8160ff16141580156117935750601c8160ff1614155b156117a45760009350505050611811565b60018682858560405160008152602001604052604051808581526020018460ff1660ff1681526020018381526020018281526020019450505050506020604051602081039080840390855afa158015611801573d6000803e3d6000fd5b5050506020604051035193505050505b92915050565b6000600115156002600085815260200190815260200160002060009054906101000a900460ff16151514156118b4576040517f08c379a00000000000000000000000000000000000000000000000000000000081526004018080602001828103825260178152602001807f7377617020697320616c726561647920636c61696d656400000000000000000081525060200191505060405180910390fd5b42856002600581106118c257fe5b60200201511161193a576040517f08c379a000000000000000000000000000000000000000000000000000000000815260040180806020018281038252600f8152602001807f737761702069732065787069726564000000000000000000000000000000000081525060200191505060405180910390fd5b6119568660006005811061194a57fe5b602002015183856109ab565b6119c8576040517f08c379a00000000000000000000000000000000000000000000000000000000081526004018080602001828103825260118152602001807f696e76616c6964207369676e617475726500000000000000000000000000000081525060200191505060405180910390fd5b6119d28686611ff0565b156119e05760009050611c05565b42856004600581106119ee57fe5b60200201511180611a3b575085600360058110611a0757fe5b602002015173ffffffffffffffffffffffffffffffffffffffff163373ffffffffffffffffffffffffffffffffffffffff16145b611aad576040517f08c379a00000000000000000000000000000000000000000000000000000000081526004018080602001828103825260148152602001807f6e6f74207072696f726974792072656c6179657200000000000000000000000081525060200191505060405180910390fd5b83600060028110611aba57fe5b6020020151600285600160028110611ace57fe5b6020020151604051602001808281526020019150506040516020818303038152906040526040518082805190602001908083835b60208310611b255780518252602082019150602081019050602083039250611b02565b6001836020036101000a038019825116818451168082178552505050505050905001915050602060405180830381855afa158015611b67573d6000803e3d6000fd5b5050506040513d6020811015611b7c57600080fd5b810190808051906020019092919050505014611c00576040517f08c379a00000000000000000000000000000000000000000000000000000000081526004018080602001828103825260118152602001807f696e636f727265637420696e766f69636500000000000000000000000000000081525060200191505060405180910390fd5b600190505b95945050505050565b600083600060058110611c1d57fe5b602002015160008087600060058110611c3257fe5b602002015173ffffffffffffffffffffffffffffffffffffffff1673ffffffffffffffffffffffffffffffffffffffff1681526020019081526020016000206000018190555082600160028110611c8557fe5b60200201516003600085600060028110611c9b57fe5b602002015181526020019081526020016000208190555060016002600084815260200190815260200160002060006101000a81548160ff021916908315150217905550611d2e85600060058110611cee57fe5b602002015186600160058110611d0057fe5b602002015187600260058110611d1257fe5b602002015187600160058110611d2457fe5b6020020151611d8c565b50611d7f85600060058110611d3f57fe5b602002015186600360058110611d5157fe5b602002015187600460058110611d6357fe5b602002015187600360058110611d7557fe5b6020020151611d8c565b5060019050949350505050565b600080821415611d9f5760009050611fe8565b81600160008773ffffffffffffffffffffffffffffffffffffffff1673ffffffffffffffffffffffffffffffffffffffff16815260200190815260200160002060008573ffffffffffffffffffffffffffffffffffffffff1673ffffffffffffffffffffffffffffffffffffffff1681526020019081526020016000205403600160008773ffffffffffffffffffffffffffffffffffffffff1673ffffffffffffffffffffffffffffffffffffffff16815260200190815260200160002060008573ffffffffffffffffffffffffffffffffffffffff1673ffffffffffffffffffffffffffffffffffffffff16815260200190815260200160002081905550600073ffffffffffffffffffffffffffffffffffffffff168373ffffffffffffffffffffffffffffffffffffffff161415611f1f578373ffffffffffffffffffffffffffffffffffffffff166108fc839081150290604051600060405180830381858888f19350505050158015611f19573d6000803e3d6000fd5b50611fe3565b8273ffffffffffffffffffffffffffffffffffffffff1663a9059cbb85846040518363ffffffff1660e01b8152600401808373ffffffffffffffffffffffffffffffffffffffff1673ffffffffffffffffffffffffffffffffffffffff16815260200182815260200192505050602060405180830381600087803b158015611fa657600080fd5b505af1158015611fba573d6000803e3d6000fd5b505050506040513d6020811015611fd057600080fd5b8101908080519060200190929190505050505b600190505b949350505050565b6000806000905060006120258560006005811061200957fe5b60200201518660026005811061201b57fe5b6020020151610e42565b905060006120558660006005811061203957fe5b60200201518760046005811061204b57fe5b6020020151610e42565b905060016000808860006005811061206957fe5b602002015173ffffffffffffffffffffffffffffffffffffffff1673ffffffffffffffffffffffffffffffffffffffff1681526020019081526020016000206000015401856000600581106120ba57fe5b6020020151146120c957600192505b846001600581106120d657fe5b60200201518210156120e757600192505b846003600581106120f457fe5b602002015181101561210557600192505b82156121f55761213b8660006005811061211b57fe5b6020020151610bad8860036005811061213057fe5b602002015184611d8c565b506121978660006005811061214c57fe5b6020020151610bad8860026005811061216157fe5b60200201516121928a60026005811061217657fe5b60200201518b60006005811061218857fe5b602002015161157a565b611d8c565b506121f3866000600581106121a857fe5b6020020151610bad886004600581106121bd57fe5b60200201516121ee8a6004600581106121d257fe5b60200201518b6000600581106121e457fe5b602002015161157a565b611d8c565b505b8293505050509291505056fe6e6f7420636f6c6420656e6f7567683b20667265657a6520616e642f6f722077616974206120626974a265627a7a72315820de25fa945ccec6971dea0b2e54403ebba221010c844301156ba6406eb4e134cb64736f6c63430005100032",
  "source": "pragma solidity >=0.5.16;\n\n// TODO fix the pagma in production\n// TODO events etc\n// TODO safemath\n// TODO make more stuff user-configurable\n\nimport \"@openzeppelin/contracts/cryptography/ECDSA.sol\";\nimport \"@openzeppelin/contracts/token/ERC20/ERC20.sol\";\n\ncontract MetaSwap {\n  using ECDSA for bytes32;\n\n  struct AccountDetails {\n    uint nonce;\n    address signerWallet;\n    uint cooldownStart;\n    bool warmupTriggered;\n  }\n\n  mapping (address => AccountDetails) _accountDetails;\n  mapping (address => mapping (address => uint)) _balances;\n  mapping (bytes32 => bool) _completedSwaps;\n  mapping (bytes32 => bytes32) _revealedHashes;\n\n  uint constant _cooldownTime = 5 * 60; // 5 minutes\n  uint constant _maximumSpend = 5; // maximum spend of asset per swap (balance / maximumSpend)\n  address constant _etherAddress = address(0);\n  address payable constant _burnAddress = address(0xbad);\n\n  modifier frozen {\n    require(getIsFrozen(msg.sender), 'not cold enough; freeze and/or wait a bit');\n    _;\n  }\n\n  function getContractDetails() public view returns (\n    uint cooldownTime,\n    uint maximumSpend,\n    address etherAddress,\n    address burnAddress\n  ) {\n    return (\n      _cooldownTime,\n      _maximumSpend,\n      _etherAddress,\n      _burnAddress\n    );\n  }\n\n  function getAccountDetails(address _account) public view returns (\n    uint nonce,\n    address signerWallet,\n    uint cooldownStart,\n    bool warmupTriggered,\n    uint frozenTime,\n    bool isFrozen\n  ) {\n    return (\n      _accountDetails[_account].nonce,\n      _accountDetails[_account].signerWallet,\n      _accountDetails[_account].cooldownStart,\n      _accountDetails[_account].warmupTriggered,\n      getFrozenTime(_account),\n      getIsFrozen(_account)\n    );\n  }\n\n  function getBalance(address _asset, address _account) public view returns (uint balance) {\n    return _balances[_account][_asset];\n  }\n\n  function getFrozenTime(address _account) public view returns (uint frozenBlockNumber) {\n    return _accountDetails[_account].cooldownStart + _cooldownTime;\n  }\n\n  function getIsFrozen(address _account) public view returns (bool isFrozen) {\n    return !_accountDetails[_account].warmupTriggered && block.timestamp > getFrozenTime(_account);\n  }\n\n  function getSignatureIsValid(address _account, bytes memory _signature, bytes32 _messageHash) public view returns (bool signatureIsValid) {\n    address signer = _messageHash.toEthSignedMessageHash().recover(_signature);\n    if (signer == address(0)) {\n      return false;\n    }\n    return signer == _account || signer == _accountDetails[_account].signerWallet;\n  }\n\n  function getMaxSpend(address _account, address _asset) public view returns (uint maxSpend) {\n    return _balances[_account][_asset] / _maximumSpend;\n  }\n\n  function getMessageHash(\n    address[5] memory _addressVals,\n    uint[5] memory _uintVals,\n    bytes32[2] memory _bytes32Vals\n  ) public view returns (bytes32 messageHash) {\n    return keccak256(abi.encodePacked(\n      address(this),\n      _addressVals[0], // account\n      _addressVals[1], // recipient\n      _addressVals[2], // asset\n      _addressVals[3], // relayerAddress\n      _addressVals[4], // relayerAsset\n      _uintVals[0], // nonce\n      _uintVals[1], // amount\n      _uintVals[2], // expiration\n      _uintVals[3], // relayerAmount\n      _uintVals[4], // relayerExpiration\n      _bytes32Vals[0] // preImageHash\n      // _bytes32Vals[1], // preImage\n    ));\n  }\n\n  function cooldown() public returns (bool success) {\n    _accountDetails[msg.sender].cooldownStart = block.timestamp;\n    _accountDetails[msg.sender].warmupTriggered = false;\n    return true;\n  }\n\n  function warmUp() public frozen returns (bool success) {\n    _accountDetails[msg.sender].warmupTriggered = true;\n    return true;\n  }\n\n  function configureAccount(address _signerWallet, bool _done) public frozen returns (bool success) {\n    _accountDetails[msg.sender].signerWallet = _signerWallet;\n    if (_done) {\n      warmUp();\n    }\n    return true;\n  }\n\n  function withdraw(address _asset, uint _amount) public frozen returns (bool success) {\n    return transferFunds(msg.sender, msg.sender, _asset, _amount);\n  }\n\n  function depositToken(address _asset, uint _amount) public returns (bool success) {\n    // todo safe match etc\n    ERC20(_asset).transferFrom(msg.sender, address(this), _amount);\n    _balances[msg.sender][_asset] = _balances[msg.sender][_asset] + _amount;\n    return true;\n  }\n\n  function depositEther() public payable returns (bool success) {\n    _balances[msg.sender][_etherAddress] = _balances[msg.sender][_etherAddress] + msg.value;\n    return true;\n  }\n\n  function transferFunds(address _from, address payable _to, address _asset, uint _amount) private returns (bool success) {\n    if (_amount == 0) {\n      return false;\n    }\n    // TODO use safemath\n    _balances[_from][_asset] = _balances[_from][_asset] - _amount;\n    if (_asset == _etherAddress) {\n      _to.transfer(_amount);\n    } else {\n      // TODO, ensure that we can actually do this - we dont want to revert and avoid punishing\n      ERC20(_asset).transfer(_to, _amount);\n    }\n    return true;\n  }\n\n  function punishDishonest(\n    address[5] memory _addressVals,\n    uint[5] memory _uintVals\n  ) private returns (bool wasPunished) {\n    bool punish = false;\n    uint maxSpend = getMaxSpend(_addressVals[0], _addressVals[2]);\n    uint relayMaxSpend = getMaxSpend(_addressVals[0], _addressVals[4]);\n    // // if the nonce is invalid (trying to double spend)\n    if (_uintVals[0] != _accountDetails[_addressVals[0]].nonce + 1) {\n      punish = true;\n    }\n    // trying to spend too much\n    if (maxSpend < _uintVals[1]) {\n      punish = true;\n    }\n    // trying to spend too much\n    if (relayMaxSpend < _uintVals[3]) {\n      punish = true;\n    }\n    // punish!\n    if (punish) {\n      // TODO insert a more clever punishemnent system\n      transferFunds(_addressVals[0], _burnAddress, address(uint160(_addressVals[3])), relayMaxSpend);\n      transferFunds(_addressVals[0], _burnAddress, _addressVals[2], getBalance(_addressVals[2],_addressVals[0]));\n      transferFunds(_addressVals[0], _burnAddress, _addressVals[4], getBalance(_addressVals[4],_addressVals[0]));\n    }\n    return punish;\n  }\n\n  function validateSwap(\n    address[5] memory _addressVals,\n    uint[5] memory _uintVals,\n    bytes32[2] memory _bytes32Vals,\n    bytes32 _messageHash,\n    bytes memory _signature\n  ) private returns (bool success) {\n    require(_completedSwaps[_messageHash] != true, 'swap is already claimed');\n    require(_uintVals[2] > block.timestamp, 'swap is expired');\n    require(getSignatureIsValid(_addressVals[0], _signature, _messageHash), 'invalid signature');\n    if (punishDishonest(_addressVals, _uintVals)) {\n      return false;\n    }\n    require(_uintVals[4] > block.timestamp || msg.sender == _addressVals[3], 'not priority relayer');\n    require(sha256(abi.encodePacked(_bytes32Vals[1])) == _bytes32Vals[0], 'incorrect invoice');\n    return true;\n  }\n\n  function completeSwap(\n    address[5] memory _addressVals,\n    uint[5] memory _uintVals,\n    bytes32[2] memory _bytes32Vals,\n    bytes32 _messageHash\n  ) private returns (bool _success) {\n    _accountDetails[_addressVals[0]].nonce = _uintVals[0];\n    _revealedHashes[_bytes32Vals[0]] = _bytes32Vals[1];\n    _completedSwaps[_messageHash] = true;\n    transferFunds(_addressVals[0], address(uint160(_addressVals[1])), _addressVals[2], _uintVals[1]);\n    transferFunds(_addressVals[0], address(uint160(_addressVals[3])), _addressVals[4], _uintVals[3]);\n    return true;\n  }\n\n\tfunction swap(\n    address[5] memory _addressVals, // preimageHash, preImage\n    uint[5] memory _uintVals, // nonce, amount, expirationBlock, relayerAmount, relayerExpirationBlock\n    bytes32[2] memory _bytes32Vals, // preImageHash , preImage\n    bytes memory _signature\n  ) public returns (bool success) {\n    bytes32 messageHash = getMessageHash(_addressVals, _uintVals, _bytes32Vals);\n    if (!validateSwap(_addressVals, _uintVals, _bytes32Vals, messageHash, _signature)) {\n      return false;\n    }\n    completeSwap(_addressVals, _uintVals, _bytes32Vals, messageHash);\n    return true;\n  }\n}",
  "sourcePath": "/Users/cat/code/github/MetaSwap/contracts/contracts/MetaSwap.sol",
  "compiler": {
    "name": "solc",
    "version": "0.5.16+commit.9c3226ce.Emscripten.clang"
  },
  "schemaVersion": "3.0.23",
  "updatedAt": "2020-03-02T03:43:17.458Z",
  "networkType": "ethereum",
  "devdoc": {
    "methods": {}
  },
  "userdoc": {
    "methods": {}
  }
}