{
  "contractName": "MetaSwap",
  "abi": [
    {
      "constant": false,
      "inputs": [],
      "name": "freeze",
      "outputs": [],
      "payable": false,
      "stateMutability": "nonpayable",
      "type": "function"
    },
    {
      "constant": false,
      "inputs": [],
      "name": "unfreeze",
      "outputs": [],
      "payable": false,
      "stateMutability": "nonpayable",
      "type": "function"
    },
    {
      "constant": false,
      "inputs": [],
      "name": "configureAccount",
      "outputs": [],
      "payable": false,
      "stateMutability": "nonpayable",
      "type": "function"
    },
    {
      "constant": false,
      "inputs": [],
      "name": "deposit",
      "outputs": [],
      "payable": false,
      "stateMutability": "nonpayable",
      "type": "function"
    },
    {
      "constant": false,
      "inputs": [],
      "name": "withdraw",
      "outputs": [],
      "payable": false,
      "stateMutability": "nonpayable",
      "type": "function"
    },
    {
      "constant": false,
      "inputs": [
        {
          "internalType": "address",
          "name": "bob",
          "type": "address"
        },
        {
          "internalType": "address",
          "name": "alice",
          "type": "address"
        },
        {
          "internalType": "address",
          "name": "token",
          "type": "address"
        },
        {
          "internalType": "bytes32",
          "name": "preImageHash",
          "type": "bytes32"
        },
        {
          "internalType": "uint256",
          "name": "expirationBlock",
          "type": "uint256"
        },
        {
          "internalType": "uint256",
          "name": "amount",
          "type": "uint256"
        },
        {
          "internalType": "bytes32",
          "name": "signature",
          "type": "bytes32"
        },
        {
          "internalType": "bytes32",
          "name": "preImage",
          "type": "bytes32"
        }
      ],
      "name": "settleSwap",
      "outputs": [
        {
          "internalType": "bool",
          "name": "success",
          "type": "bool"
        }
      ],
      "payable": false,
      "stateMutability": "nonpayable",
      "type": "function"
    }
  ],
  "bytecode": "0x608060405234801561001057600080fd5b506101b5806100206000396000f3fe608060405234801561001057600080fd5b50600436106100625760003560e01c806336455bbd146100675780633ccfd60b146101365780636099f9c41461014057806362a5af3b1461014a5780636a28f00014610154578063d0e30db01461015e575b600080fd5b61011c600480360361010081101561007e57600080fd5b81019080803573ffffffffffffffffffffffffffffffffffffffff169060200190929190803573ffffffffffffffffffffffffffffffffffffffff169060200190929190803573ffffffffffffffffffffffffffffffffffffffff1690602001909291908035906020019092919080359060200190929190803590602001909291908035906020019092919080359060200190929190505050610168565b604051808215151515815260200191505060405180910390f35b61013e610176565b005b610148610178565b005b61015261017a565b005b61015c61017c565b005b61016661017e565b005b600098975050505050505050565b565b565b565b565b56fea265627a7a72315820cc89bfbddadce914e4cc00447bc6fdcdb9eb88ce0d84a1f87223284c062f3c8f64736f6c63430005100032",
  "source": "pragma solidity >=0.4.25 <0.7.0;\n\n// TODO make sure it works with ETC\n\n// if a token is 0x0, assume it's the base coin, to make interfaces generic\n\ncontract MetaSwap {\n\n  struct AccountConfiguration {\n      address burnerWallet;\n      bool frozen;\n      uint frozenBlock;\n  }\n\n  mapping (address => AccountConfiguration) accountConfigs;\n  mapping (address => mapping (address => uint256)) balances;\n  \n  uint constant caimWindowBlocks = 20; // 5 minutes\n\n  // called when modifying config and withdrawing to prevent abuse\n  // can only unfreeze after the given swap duration\n  function freeze() public {}\n  function unfreeze() public {}\n\n  // update settings for this owner\n  function configureAccount() public {}\n\n  // depositing (0x0 = Coin)\n  // approve(address,uint256)\n  // and\n  // transferFrom(address,address,uint256)\n  function deposit() public {}\n\n  // withdrawing\n  // TODO: ensure it's frozen\n  function withdraw() public {}\n  \n  // needs an \"expires\" blocknumber\n\tfunction settleSwap(\n    address bob,\n    address alice,\n    address token,\n    bytes32 preImageHash,\n    uint expirationBlock,\n    uint amount,\n    bytes32 signature,\n    bytes32 preImage\n  ) public returns(bool success) {\n  \n    // string message = (abi.encodePacked(bob, alice, token, amount, preImageHash, expires, amount));\n    // address signer = ecrecover(message, signature);\n    // // check that message is valid\n    // address(this) // Prevents replays in multiple recipients\n    // require(signer == bobBurnerWallet, \"Not signed by bob's wallet\");\n    // require(sha256(preImage) == preImageHash, \"preImage does not match the invoice\");\n    // require(expirationBlock > block.number, \"Swap has expired\");\n    // // ensure that bob has enough balance (based on rate limit)\n    // require(rateLimit(bob, token, amount));\n    // // check bob is not frozen\n    // // punish bob if he signs a bad message\n    // // send the funds to alice\n    // sendFunds(bob, alice, token, amount);\n    // TODO reward the relayer for publishing a valid message\n  }\n}\n\n/*\n    function acceptRelayedCall(\n        address relay,\n        address from,\n        bytes calldata encodedFunction,\n        uint256 transactionFee,\n        uint256 gasPrice,\n        uint256 gasLimit,\n        uint256 nonce,\n        bytes calldata approvalData,\n        uint256\n    )\n        external\n        view\n        virtual\n        override\n        returns (uint256, bytes memory)\n    {\n        bytes memory blob = abi.encodePacked(\n            relay,\n            from,\n            encodedFunction,\n            transactionFee,\n            gasPrice,\n            gasLimit,\n            nonce, // Prevents replays on RelayHub\n            getHubAddr(), // Prevents replays in multiple RelayHubs\n            address(this) // Prevents replays in multiple recipients\n        );\n        if (keccak256(blob).toEthSignedMessageHash().recover(approvalData) == _trustedSigner) {\n            return _approveRelayedCall();\n        } else {\n            return _rejectRelayedCall(uint256(GSNRecipientSignatureErrorCodes.INVALID_SIGNER));\n        }\n\n*/",
  "sourcePath": "/Users/cat/code/github/MetaSwap/contracts/contracts/MetaSwap.sol",
  "compiler": {
    "name": "solc",
    "version": "0.5.16+commit.9c3226ce.Emscripten.clang"
  },
  "schemaVersion": "3.0.23",
  "updatedAt": "2020-02-15T04:35:13.038Z",
  "networkType": "ethereum",
  "devdoc": {
    "methods": {}
  },
  "userdoc": {
    "methods": {}
  }
}