{
  "contractName": "MetaSwap",
  "abi": [
    {
      "constant": true,
      "inputs": [],
      "name": "claimWindowBlocks",
      "outputs": [
        {
          "internalType": "uint256",
          "name": "",
          "type": "uint256"
        }
      ],
      "payable": false,
      "stateMutability": "view",
      "type": "function"
    },
    {
      "constant": true,
      "inputs": [],
      "name": "frozenBuffer",
      "outputs": [
        {
          "internalType": "uint256",
          "name": "",
          "type": "uint256"
        }
      ],
      "payable": false,
      "stateMutability": "view",
      "type": "function"
    },
    {
      "constant": true,
      "inputs": [],
      "name": "maximumSpendProportion",
      "outputs": [
        {
          "internalType": "uint256",
          "name": "",
          "type": "uint256"
        }
      ],
      "payable": false,
      "stateMutability": "view",
      "type": "function"
    },
    {
      "constant": true,
      "inputs": [],
      "name": "purgatoryDuration",
      "outputs": [
        {
          "internalType": "uint256",
          "name": "",
          "type": "uint256"
        }
      ],
      "payable": false,
      "stateMutability": "view",
      "type": "function"
    },
    {
      "constant": true,
      "inputs": [
        {
          "internalType": "address",
          "name": "account",
          "type": "address"
        },
        {
          "internalType": "address",
          "name": "asset",
          "type": "address"
        }
      ],
      "name": "getBalance",
      "outputs": [
        {
          "internalType": "uint256",
          "name": "value",
          "type": "uint256"
        }
      ],
      "payable": false,
      "stateMutability": "view",
      "type": "function"
    },
    {
      "constant": true,
      "inputs": [
        {
          "internalType": "address",
          "name": "account",
          "type": "address"
        }
      ],
      "name": "getAccountDetails",
      "outputs": [
        {
          "internalType": "uint32",
          "name": "nonce",
          "type": "uint32"
        },
        {
          "internalType": "address",
          "name": "burnerWallet",
          "type": "address"
        },
        {
          "internalType": "uint256",
          "name": "lastPurgatory",
          "type": "uint256"
        },
        {
          "internalType": "uint256",
          "name": "lastFrozen",
          "type": "uint256"
        },
        {
          "internalType": "bool",
          "name": "isFrozen",
          "type": "bool"
        },
        {
          "internalType": "uint256",
          "name": "coldBlock",
          "type": "uint256"
        }
      ],
      "payable": false,
      "stateMutability": "view",
      "type": "function"
    },
    {
      "constant": true,
      "inputs": [
        {
          "internalType": "address",
          "name": "account",
          "type": "address"
        }
      ],
      "name": "coldEnoughBlock",
      "outputs": [
        {
          "internalType": "uint256",
          "name": "blocknumber",
          "type": "uint256"
        }
      ],
      "payable": false,
      "stateMutability": "view",
      "type": "function"
    },
    {
      "constant": true,
      "inputs": [
        {
          "internalType": "address",
          "name": "account",
          "type": "address"
        }
      ],
      "name": "isColdEnough",
      "outputs": [
        {
          "internalType": "bool",
          "name": "coldEnough",
          "type": "bool"
        }
      ],
      "payable": false,
      "stateMutability": "view",
      "type": "function"
    },
    {
      "constant": false,
      "inputs": [],
      "name": "freeze",
      "outputs": [
        {
          "internalType": "bool",
          "name": "success",
          "type": "bool"
        }
      ],
      "payable": false,
      "stateMutability": "nonpayable",
      "type": "function"
    },
    {
      "constant": false,
      "inputs": [],
      "name": "unFreeze",
      "outputs": [
        {
          "internalType": "bool",
          "name": "success",
          "type": "bool"
        }
      ],
      "payable": false,
      "stateMutability": "nonpayable",
      "type": "function"
    },
    {
      "constant": true,
      "inputs": [
        {
          "internalType": "address",
          "name": "account",
          "type": "address"
        }
      ],
      "name": "notInPurgatory",
      "outputs": [
        {
          "internalType": "bool",
          "name": "",
          "type": "bool"
        }
      ],
      "payable": false,
      "stateMutability": "view",
      "type": "function"
    },
    {
      "constant": false,
      "inputs": [
        {
          "internalType": "address",
          "name": "burnerWallet",
          "type": "address"
        },
        {
          "internalType": "bool",
          "name": "done",
          "type": "bool"
        }
      ],
      "name": "configureAccount",
      "outputs": [
        {
          "internalType": "bool",
          "name": "success",
          "type": "bool"
        }
      ],
      "payable": false,
      "stateMutability": "nonpayable",
      "type": "function"
    },
    {
      "constant": false,
      "inputs": [
        {
          "internalType": "address",
          "name": "asset",
          "type": "address"
        },
        {
          "internalType": "uint256",
          "name": "amount",
          "type": "uint256"
        }
      ],
      "name": "withdraw",
      "outputs": [
        {
          "internalType": "bool",
          "name": "success",
          "type": "bool"
        }
      ],
      "payable": false,
      "stateMutability": "nonpayable",
      "type": "function"
    },
    {
      "constant": false,
      "inputs": [
        {
          "internalType": "address",
          "name": "asset",
          "type": "address"
        },
        {
          "internalType": "uint256",
          "name": "value",
          "type": "uint256"
        }
      ],
      "name": "depositToken",
      "outputs": [
        {
          "internalType": "bool",
          "name": "success",
          "type": "bool"
        }
      ],
      "payable": false,
      "stateMutability": "nonpayable",
      "type": "function"
    },
    {
      "constant": false,
      "inputs": [],
      "name": "depositEther",
      "outputs": [
        {
          "internalType": "bool",
          "name": "success",
          "type": "bool"
        }
      ],
      "payable": true,
      "stateMutability": "payable",
      "type": "function"
    },
    {
      "constant": true,
      "inputs": [
        {
          "internalType": "address",
          "name": "account",
          "type": "address"
        },
        {
          "internalType": "address",
          "name": "asset",
          "type": "address"
        }
      ],
      "name": "calculateMaxSpend",
      "outputs": [
        {
          "internalType": "uint256",
          "name": "maxSpend",
          "type": "uint256"
        }
      ],
      "payable": false,
      "stateMutability": "view",
      "type": "function"
    },
    {
      "constant": false,
      "inputs": [
        {
          "internalType": "uint32",
          "name": "nonce",
          "type": "uint32"
        },
        {
          "internalType": "address",
          "name": "account",
          "type": "address"
        },
        {
          "internalType": "address payable",
          "name": "receiver",
          "type": "address"
        },
        {
          "internalType": "address",
          "name": "asset",
          "type": "address"
        },
        {
          "internalType": "uint256",
          "name": "amount",
          "type": "uint256"
        },
        {
          "internalType": "uint256",
          "name": "expirationBlock",
          "type": "uint256"
        },
        {
          "internalType": "bytes32",
          "name": "preImageHash",
          "type": "bytes32"
        },
        {
          "internalType": "address payable",
          "name": "relayerAddress",
          "type": "address"
        },
        {
          "internalType": "address",
          "name": "relayerAsset",
          "type": "address"
        },
        {
          "internalType": "uint256",
          "name": "relayerAmount",
          "type": "uint256"
        },
        {
          "internalType": "uint256",
          "name": "relayerExpirationBlock",
          "type": "uint256"
        },
        {
          "internalType": "bytes32",
          "name": "preImage",
          "type": "bytes32"
        },
        {
          "internalType": "bytes",
          "name": "signature",
          "type": "bytes"
        }
      ],
      "name": "swap",
      "outputs": [],
      "payable": false,
      "stateMutability": "nonpayable",
      "type": "function"
    }
  ],
  "bytecode": "0x608060405234801561001057600080fd5b506122ad806100206000396000f3fe6080604052600436106100fe5760003560e01c80637cf12b90116100955780639ae47f63116100645780639ae47f6314610503578063d41526d21461052e578063d4fac45d14610597578063ebbc22671461061c578063f3fef3a3146107d1576100fe565b80637cf12b90146103b857806384617d66146103e75780639462cf301461045c57806398ea5fca146104e1576100fe565b80634e261434116100d15780634e261434146102ca578063520f545e146102f55780635c5469fe1461032057806362a5af3b14610389576100fe565b8063057929051461010357806317e2e7cc146101685780632aceb53414610193578063338b5dea14610257575b600080fd5b34801561010f57600080fd5b506101526004803603602081101561012657600080fd5b81019080803573ffffffffffffffffffffffffffffffffffffffff169060200190929190505050610844565b6040518082815260200191505060405180910390f35b34801561017457600080fd5b5061017d610895565b6040518082815260200191505060405180910390f35b34801561019f57600080fd5b506101e2600480360360208110156101b657600080fd5b81019080803573ffffffffffffffffffffffffffffffffffffffff16906020019092919050505061089a565b604051808763ffffffff1663ffffffff1681526020018673ffffffffffffffffffffffffffffffffffffffff1673ffffffffffffffffffffffffffffffffffffffff16815260200185815260200184815260200183151515158152602001828152602001965050505050505060405180910390f35b34801561026357600080fd5b506102b06004803603604081101561027a57600080fd5b81019080803573ffffffffffffffffffffffffffffffffffffffff16906020019092919080359060200190929190505050610a48565b604051808215151515815260200191505060405180910390f35b3480156102d657600080fd5b506102df610c4a565b6040518082815260200191505060405180910390f35b34801561030157600080fd5b5061030a610c4f565b6040518082815260200191505060405180910390f35b34801561032c57600080fd5b5061036f6004803603602081101561034357600080fd5b81019080803573ffffffffffffffffffffffffffffffffffffffff169060200190929190505050610c56565b604051808215151515815260200191505060405180910390f35b34801561039557600080fd5b5061039e610cfb565b604051808215151515815260200191505060405180910390f35b3480156103c457600080fd5b506103cd610da4565b604051808215151515815260200191505060405180910390f35b3480156103f357600080fd5b506104426004803603604081101561040a57600080fd5b81019080803573ffffffffffffffffffffffffffffffffffffffff169060200190929190803515159060200190929190505050610e65565b604051808215151515815260200191505060405180910390f35b34801561046857600080fd5b506104cb6004803603604081101561047f57600080fd5b81019080803573ffffffffffffffffffffffffffffffffffffffff169060200190929190803573ffffffffffffffffffffffffffffffffffffffff169060200190929190505050610f5f565b6040518082815260200191505060405180910390f35b6104e9610ff0565b604051808215151515815260200191505060405180910390f35b34801561050f57600080fd5b506105186110f8565b6040518082815260200191505060405180910390f35b34801561053a57600080fd5b5061057d6004803603602081101561055157600080fd5b81019080803573ffffffffffffffffffffffffffffffffffffffff1690602001909291905050506110fd565b604051808215151515815260200191505060405180910390f35b3480156105a357600080fd5b50610606600480360360408110156105ba57600080fd5b81019080803573ffffffffffffffffffffffffffffffffffffffff169060200190929190803573ffffffffffffffffffffffffffffffffffffffff169060200190929190505050611246565b6040518082815260200191505060405180910390f35b34801561062857600080fd5b506107cf60048036036101a081101561064057600080fd5b81019080803563ffffffff169060200190929190803573ffffffffffffffffffffffffffffffffffffffff169060200190929190803573ffffffffffffffffffffffffffffffffffffffff169060200190929190803573ffffffffffffffffffffffffffffffffffffffff169060200190929190803590602001909291908035906020019092919080359060200190929190803573ffffffffffffffffffffffffffffffffffffffff169060200190929190803573ffffffffffffffffffffffffffffffffffffffff1690602001909291908035906020019092919080359060200190929190803590602001909291908035906020019064010000000081111561074957600080fd5b82018360208201111561075b57600080fd5b8035906020019184600183028401116401000000008311171561077d57600080fd5b91908080601f016020809104026020016040519081016040528093929190818152602001838380828437600081840152601f19601f8201169050808301925050505050505091929192905050506112cd565b005b3480156107dd57600080fd5b5061082a600480360360408110156107f457600080fd5b81019080803573ffffffffffffffffffffffffffffffffffffffff1690602001909291908035906020019092919050505061192d565b604051808215151515815260200191505060405180910390f35b6000600860146000808573ffffffffffffffffffffffffffffffffffffffff1673ffffffffffffffffffffffffffffffffffffffff1681526020019081526020016000206002015401019050919050565b600581565b6000806000806000806000808873ffffffffffffffffffffffffffffffffffffffff1673ffffffffffffffffffffffffffffffffffffffff16815260200190815260200160002060000160009054906101000a900463ffffffff166000808973ffffffffffffffffffffffffffffffffffffffff1673ffffffffffffffffffffffffffffffffffffffff16815260200190815260200160002060000160049054906101000a900473ffffffffffffffffffffffffffffffffffffffff166000808a73ffffffffffffffffffffffffffffffffffffffff1673ffffffffffffffffffffffffffffffffffffffff168152602001908152602001600020600101546000808b73ffffffffffffffffffffffffffffffffffffffff1673ffffffffffffffffffffffffffffffffffffffff168152602001908152602001600020600201546000808c73ffffffffffffffffffffffffffffffffffffffff1673ffffffffffffffffffffffffffffffffffffffff16815260200190815260200160002060030160009054906101000a900460ff16610a338c610844565b95509550955095509550955091939550919395565b60008273ffffffffffffffffffffffffffffffffffffffff166323b872dd3330856040518463ffffffff1660e01b8152600401808473ffffffffffffffffffffffffffffffffffffffff1673ffffffffffffffffffffffffffffffffffffffff1681526020018373ffffffffffffffffffffffffffffffffffffffff1673ffffffffffffffffffffffffffffffffffffffff1681526020018281526020019350505050602060405180830381600087803b158015610b0557600080fd5b505af1158015610b19573d6000803e3d6000fd5b505050506040513d6020811015610b2f57600080fd5b81019080805190602001909291905050505081600160003373ffffffffffffffffffffffffffffffffffffffff1673ffffffffffffffffffffffffffffffffffffffff16815260200190815260200160002060008573ffffffffffffffffffffffffffffffffffffffff1673ffffffffffffffffffffffffffffffffffffffff1681526020019081526020016000205401600160003373ffffffffffffffffffffffffffffffffffffffff1673ffffffffffffffffffffffffffffffffffffffff16815260200190815260200160002060008573ffffffffffffffffffffffffffffffffffffffff1673ffffffffffffffffffffffffffffffffffffffff168152602001908152602001600020819055506001905092915050565b600881565b6202ab9881565b6000806000808473ffffffffffffffffffffffffffffffffffffffff1673ffffffffffffffffffffffffffffffffffffffff168152602001908152602001600020600101541415610caa5760019050610cf6565b6202ab986000808473ffffffffffffffffffffffffffffffffffffffff1673ffffffffffffffffffffffffffffffffffffffff1681526020019081526020016000206001015443031190505b919050565b6000436000803373ffffffffffffffffffffffffffffffffffffffff1673ffffffffffffffffffffffffffffffffffffffff1681526020019081526020016000206002018190555060016000803373ffffffffffffffffffffffffffffffffffffffff1673ffffffffffffffffffffffffffffffffffffffff16815260200190815260200160002060030160006101000a81548160ff0219169083151502179055506001905090565b6000610daf336110fd565b610e04576040517f08c379a00000000000000000000000000000000000000000000000000000000081526004018080602001828103825260298152602001806122506029913960400191505060405180910390fd5b60008060003373ffffffffffffffffffffffffffffffffffffffff1673ffffffffffffffffffffffffffffffffffffffff16815260200190815260200160002060030160006101000a81548160ff0219169083151502179055506001905090565b6000610e70336110fd565b610ec5576040517f08c379a00000000000000000000000000000000000000000000000000000000081526004018080602001828103825260298152602001806122506029913960400191505060405180910390fd5b826000803373ffffffffffffffffffffffffffffffffffffffff1673ffffffffffffffffffffffffffffffffffffffff16815260200190815260200160002060000160046101000a81548173ffffffffffffffffffffffffffffffffffffffff021916908373ffffffffffffffffffffffffffffffffffffffff1602179055508115610f5557610f53610da4565b505b6001905092915050565b60006005600160008573ffffffffffffffffffffffffffffffffffffffff1673ffffffffffffffffffffffffffffffffffffffff16815260200190815260200160002060008473ffffffffffffffffffffffffffffffffffffffff1673ffffffffffffffffffffffffffffffffffffffff1681526020019081526020016000205481610fe757fe5b04905092915050565b600034600160003373ffffffffffffffffffffffffffffffffffffffff1673ffffffffffffffffffffffffffffffffffffffff16815260200190815260200160002060008073ffffffffffffffffffffffffffffffffffffffff1673ffffffffffffffffffffffffffffffffffffffff1681526020019081526020016000205401600160003373ffffffffffffffffffffffffffffffffffffffff1673ffffffffffffffffffffffffffffffffffffffff16815260200190815260200160002060008073ffffffffffffffffffffffffffffffffffffffff1673ffffffffffffffffffffffffffffffffffffffff168152602001908152602001600020819055506001905090565b601481565b60008060008373ffffffffffffffffffffffffffffffffffffffff1673ffffffffffffffffffffffffffffffffffffffff16815260200190815260200160002060030160009054906101000a900460ff166111c0576040517f08c379a000000000000000000000000000000000000000000000000000000000815260040180806020018281038252600a8152602001807f6e6f742066726f7a656e0000000000000000000000000000000000000000000081525060200191505060405180910390fd5b6111c982610844565b431161123d576040517f08c379a000000000000000000000000000000000000000000000000000000000815260040180806020018281038252601a8152602001807f6e6f742066726f7a656e20666f72206c6f6e6720656e6f75676800000000000081525060200191505060405180910390fd5b60019050919050565b6000600160008473ffffffffffffffffffffffffffffffffffffffff1673ffffffffffffffffffffffffffffffffffffffff16815260200190815260200160002060008373ffffffffffffffffffffffffffffffffffffffff1673ffffffffffffffffffffffffffffffffffffffff16815260200190815260200160002054905092915050565b6000308e8e8e8e8e8e8e8e8e8e8e604051602001808d73ffffffffffffffffffffffffffffffffffffffff1673ffffffffffffffffffffffffffffffffffffffff1660601b81526014018c63ffffffff1663ffffffff1660e01b81526004018b73ffffffffffffffffffffffffffffffffffffffff1673ffffffffffffffffffffffffffffffffffffffff1660601b81526014018a73ffffffffffffffffffffffffffffffffffffffff1673ffffffffffffffffffffffffffffffffffffffff1660601b81526014018973ffffffffffffffffffffffffffffffffffffffff1673ffffffffffffffffffffffffffffffffffffffff1660601b81526014018881526020018781526020018681526020018573ffffffffffffffffffffffffffffffffffffffff1673ffffffffffffffffffffffffffffffffffffffff1660601b81526014018473ffffffffffffffffffffffffffffffffffffffff1673ffffffffffffffffffffffffffffffffffffffff1660601b81526014018381526020018281526020019c50505050505050505050505050604051602081830303815290604052805190602001209050600115156002600083815260200190815260200160002060009054906101000a900460ff1615151415611514576040517f08c379a00000000000000000000000000000000000000000000000000000000081526004018080602001828103825260178152602001807f7377617020697320616c726561647920636c61696d656400000000000000000081525060200191505060405180910390fd5b438911611589576040517f08c379a000000000000000000000000000000000000000000000000000000000815260040180806020018281038252600f8152602001807f73776170206f732065787069726564000000000000000000000000000000000081525060200191505060405180910390fd5b6115928d610c56565b611604576040517f08c379a00000000000000000000000000000000000000000000000000000000081526004018080602001828103825260178152602001807f6163636f756e7420697320696e207075726761746f727900000000000000000081525060200191505060405180910390fd5b61160f8d8383611c49565b611681576040517f08c379a00000000000000000000000000000000000000000000000000000000081526004018080602001828103825260118152602001807f696e76616c6964207369676e617475726500000000000000000000000000000081525060200191505060405180910390fd5b61168f8e8e8d8d8a8a611d79565b1561169a575061191e565b438411806116d357508673ffffffffffffffffffffffffffffffffffffffff163373ffffffffffffffffffffffffffffffffffffffff16145b611745576040517f08c379a00000000000000000000000000000000000000000000000000000000081526004018080602001828103825260148152602001807f6e6f74207072696f726974792072656c6179657200000000000000000000000081525060200191505060405180910390fd5b87600284604051602001808281526020019150506040516020818303038152906040526040518082805190602001908083835b6020831061179b5780518252602082019150602081019050602083039250611778565b6001836020036101000a038019825116818451168082178552505050505050905001915050602060405180830381855afa1580156117dd573d6000803e3d6000fd5b5050506040513d60208110156117f257600080fd5b810190808051906020019092919050505014611876576040517f08c379a00000000000000000000000000000000000000000000000000000000081526004018080602001828103825260118152602001807f696e636f727265637420696e766f69636500000000000000000000000000000081525060200191505060405180910390fd5b8d6000808f73ffffffffffffffffffffffffffffffffffffffff1673ffffffffffffffffffffffffffffffffffffffff16815260200190815260200160002060000160006101000a81548163ffffffff021916908363ffffffff16021790555060016002600083815260200190815260200160002060006101000a81548160ff02191690831515021790555061190e8d888888611ea1565b5061191b8d8d8d8d611ea1565b50505b50505050505050505050505050565b6000611938336110fd565b61198d576040517f08c379a00000000000000000000000000000000000000000000000000000000081526004018080602001828103825260298152602001806122506029913960400191505060405180910390fd5b61199633610c56565b611a08576040517f08c379a00000000000000000000000000000000000000000000000000000000081526004018080602001828103825260158152602001807f796f752061726520696e207075726761746f727921000000000000000000000081525060200191505060405180910390fd5b81600160003373ffffffffffffffffffffffffffffffffffffffff1673ffffffffffffffffffffffffffffffffffffffff16815260200190815260200160002060008573ffffffffffffffffffffffffffffffffffffffff1673ffffffffffffffffffffffffffffffffffffffff168152602001908152602001600020541015611afa576040517f08c379a00000000000000000000000000000000000000000000000000000000081526004018080602001828103825260128152602001807f6e6f7420656e6f7567682062616c616e6365000000000000000000000000000081525060200191505060405180910390fd5b600073ffffffffffffffffffffffffffffffffffffffff168373ffffffffffffffffffffffffffffffffffffffff161415611b7b573373ffffffffffffffffffffffffffffffffffffffff166108fc839081150290604051600060405180830381858888f19350505050158015611b75573d6000803e3d6000fd5b50611c3f565b8273ffffffffffffffffffffffffffffffffffffffff1663a9059cbb33846040518363ffffffff1660e01b8152600401808373ffffffffffffffffffffffffffffffffffffffff1673ffffffffffffffffffffffffffffffffffffffff16815260200182815260200192505050602060405180830381600087803b158015611c0257600080fd5b505af1158015611c16573d6000803e3d6000fd5b505050506040513d6020811015611c2c57600080fd5b8101908080519060200190929190505050505b6001905092915050565b600080611c6784611c59856120f3565b61214b90919063ffffffff16565b9050600073ffffffffffffffffffffffffffffffffffffffff168173ffffffffffffffffffffffffffffffffffffffff161415611ca8576000915050611d72565b8473ffffffffffffffffffffffffffffffffffffffff168173ffffffffffffffffffffffffffffffffffffffff161480611d6e57506000808673ffffffffffffffffffffffffffffffffffffffff1673ffffffffffffffffffffffffffffffffffffffff16815260200190815260200160002060000160049054906101000a900473ffffffffffffffffffffffffffffffffffffffff1673ffffffffffffffffffffffffffffffffffffffff168173ffffffffffffffffffffffffffffffffffffffff16145b9150505b9392505050565b600080600090506000611d8c8888610f5f565b90506000611d9a8987610f5f565b905060016000808b73ffffffffffffffffffffffffffffffffffffffff1673ffffffffffffffffffffffffffffffffffffffff16815260200190815260200160002060000160009054906101000a900463ffffffff160163ffffffff168a63ffffffff1614611e0857600192505b86821015611e1557600192505b84811015611e2257600192505b8215611e9157436000808b73ffffffffffffffffffffffffffffffffffffffff1673ffffffffffffffffffffffffffffffffffffffff16815260200190815260200160002060010181905550611e7e8963deadbeef8a85611ea1565b50611e8f8963deadbeef8884611ea1565b505b8293505050509695505050505050565b600081600160008773ffffffffffffffffffffffffffffffffffffffff1673ffffffffffffffffffffffffffffffffffffffff16815260200190815260200160002060008573ffffffffffffffffffffffffffffffffffffffff1673ffffffffffffffffffffffffffffffffffffffff1681526020019081526020016000205403600160008773ffffffffffffffffffffffffffffffffffffffff1673ffffffffffffffffffffffffffffffffffffffff16815260200190815260200160002060008573ffffffffffffffffffffffffffffffffffffffff1673ffffffffffffffffffffffffffffffffffffffff16815260200190815260200160002081905550600073ffffffffffffffffffffffffffffffffffffffff168373ffffffffffffffffffffffffffffffffffffffff161415612023578373ffffffffffffffffffffffffffffffffffffffff166108fc839081150290604051600060405180830381858888f1935050505015801561201d573d6000803e3d6000fd5b506120e7565b8273ffffffffffffffffffffffffffffffffffffffff1663a9059cbb85846040518363ffffffff1660e01b8152600401808373ffffffffffffffffffffffffffffffffffffffff1673ffffffffffffffffffffffffffffffffffffffff16815260200182815260200192505050602060405180830381600087803b1580156120aa57600080fd5b505af11580156120be573d6000803e3d6000fd5b505050506040513d60208110156120d457600080fd5b8101908080519060200190929190505050505b60019050949350505050565b60008160405160200180807f19457468657265756d205369676e6564204d6573736167653a0a333200000000815250601c01828152602001915050604051602081830303815290604052805190602001209050919050565b6000604182511461215f5760009050612249565b60008060006020850151925060408501519150606085015160001a90507f7fffffffffffffffffffffffffffffff5d576e7357a4501ddfe92f46681b20a08260001c11156121b35760009350505050612249565b601b8160ff16141580156121cb5750601c8160ff1614155b156121dc5760009350505050612249565b60018682858560405160008152602001604052604051808581526020018460ff1660ff1681526020018381526020018281526020019450505050506020604051602081039080840390855afa158015612239573d6000803e3d6000fd5b5050506020604051035193505050505b9291505056fe6e6f7420636f6c6420656e6f7567683b20667265657a6520616e642f6f722077616974206120626974a265627a7a72315820fc0853e548187607166d57f98c864ef31f467806ff0b98bcba909ddb9617381064736f6c63430005100032",
  "source": "pragma solidity 0.5.16;\n\n// TODO events etc\n// TODO better naming converion\n\nimport \"@openzeppelin/contracts/cryptography/ECDSA.sol\";\nimport \"@openzeppelin/contracts/token/ERC20/ERC20.sol\";\n\ncontract MetaSwap {\n  using ECDSA for bytes32;\n\n  struct AccountDetails {\n    uint32 nonce;\n    address burnerWallet;\n    uint lastPurgatory;\n    uint lastFrozen;\n    bool isFrozen;\n  }\n\n  mapping (address => AccountDetails) accountDetails;\n  mapping (address => mapping (address => uint)) balances;\n  mapping (bytes32 => bool) completedSwaps;\n\n  uint public constant claimWindowBlocks = 20; // 5 minutes\n  uint public constant frozenBuffer = 8; // 2 minutes\n  uint public constant maximumSpendProportion = 5; // maximum spend of asset per swap\n  uint public constant purgatoryDuration = 175000; // number of blocks funds get locked if you cheat (about 1 month)\n\n  \n  modifier frozen {\n    require(isColdEnough(msg.sender), 'not cold enough; freeze and/or wait a bit');\n    _;\n  }\n\n\n  function getBalance(address account, address asset) public view returns (uint value) {\n    return balances[account][asset];\n  }\n\n  function getAccountDetails(address account) public view returns (\n    uint32 nonce,\n    address burnerWallet,\n    uint lastPurgatory,\n    uint lastFrozen,\n    bool isFrozen,\n    uint coldBlock\n  ) {\n    return (\n      accountDetails[account].nonce,\n      accountDetails[account].burnerWallet,\n      accountDetails[account].lastPurgatory,\n      accountDetails[account].lastFrozen,\n      accountDetails[account].isFrozen,\n      coldEnoughBlock(account)\n    );\n  }\n\n  function coldEnoughBlock(address account) public view returns (uint blocknumber) {\n    return accountDetails[account].lastFrozen + claimWindowBlocks + frozenBuffer;\n  }\n  function isColdEnough(address account) public view  returns (bool coldEnough) {\n    // TODO use safe math\n    require(accountDetails[account].isFrozen, 'not frozen');\n    require(block.number > coldEnoughBlock(account), 'not frozen for long enough');\n    return true;\n  }\n\n  function freeze() public returns (bool success) {\n    accountDetails[msg.sender].lastFrozen = block.number;\n    accountDetails[msg.sender].isFrozen = true;\n    return true;\n  }\n  function unFreeze() public frozen returns (bool success) {\n    accountDetails[msg.sender].isFrozen = false;\n    return true;\n  }\n  function notInPurgatory(address account) public view returns (bool) {\n    if (accountDetails[account].lastPurgatory == 0) {\n      return true;\n    }\n    return (block.number - accountDetails[account].lastPurgatory) > purgatoryDuration;\n  }\n  // update settings for this account\n  function configureAccount(address burnerWallet, bool done) public frozen returns (bool success) {\n    accountDetails[msg.sender].burnerWallet = burnerWallet;\n    if (done) {\n      unFreeze();\n    }\n    return true;\n  }\n  function withdraw(address asset, uint amount) public frozen returns (bool success) {\n    require(notInPurgatory(msg.sender), 'you are in purgatory!');\n    require(balances[msg.sender][asset] >= amount, 'not enough balance');\n    if (asset == address(0)) {\n      msg.sender.transfer(amount);\n    } else {\n      ERC20(asset).transfer(msg.sender, amount);\n    }\n    return true;\n  }\n  function depositToken(address asset, uint value) public returns (bool success) {\n    ERC20(asset).transferFrom(msg.sender, address(this), value);\n    balances[msg.sender][asset] = balances[msg.sender][asset] + value;\n    return true;\n  }\n  function depositEther() public payable returns (bool success) {\n    balances[msg.sender][address(0)] = balances[msg.sender][address(0)] + msg.value;\n    return true;\n  }\n\n  function signatureIsValid(address account, bytes memory signature, bytes32 swapHash) private view returns (bool success) {\n    address signer = swapHash.toEthSignedMessageHash().recover(signature);\n    if (signer == address(0)) {\n      return false;\n    }\n    return signer == account || signer == accountDetails[account].burnerWallet;\n  }\n\n  function transferFunds(address from, address payable to, address asset, uint amount) private returns (bool success) {\n    balances[from][asset] = balances[from][asset] - amount;\n    if (asset == address(0)) {\n      to.transfer(amount);\n    } else {\n      ERC20(asset).transfer(to, amount);\n    }\n    return true;\n  }\n\n  function calculateMaxSpend(address account, address asset) public view returns (uint maxSpend) {\n    return balances[account][asset] / maximumSpendProportion;\n  }\n\n  function isCheating(\n    uint32 nonce,\n    address account,\n    address asset,\n    uint amount,\n    address relayerAsset,\n    uint relayerAmount\n  ) private returns (bool) {\n    bool cheating = false;\n    uint maxSpend = calculateMaxSpend(account, asset);\n    uint relayMaxSpend = calculateMaxSpend(account, relayerAsset);\n    // if the nonce is invalid (trying to double spend)\n    if (nonce != accountDetails[account].nonce + 1) {\n      cheating = true;\n    }\n    // trying to spend too much\n    if (maxSpend < amount) {\n      cheating = true;\n    }\n    // trying to spend too much\n    if (relayMaxSpend < relayerAmount) {\n      cheating = true;\n    }\n    // punish!\n    if (cheating) {\n      accountDetails[account].lastPurgatory = block.number;\n      transferFunds(account, address(0xdeadbeef), asset, maxSpend);\n      transferFunds(account, address(0xdeadbeef), relayerAsset, relayMaxSpend);\n    }\n    return cheating;\n  }\n\n\tfunction swap(\n    uint32 nonce,\n    address account,\n    address payable receiver,\n    address asset,\n    uint amount,\n    uint expirationBlock,\n    bytes32 preImageHash,\n    address payable relayerAddress,\n    address relayerAsset,\n    uint relayerAmount,\n    uint relayerExpirationBlock,\n    bytes32 preImage,\n    bytes memory signature\n  ) public {\n    bytes32 swapHash = keccak256(abi.encodePacked(\n      address(this),\n      nonce,\n      account,\n      receiver,\n      asset,\n      amount,\n      expirationBlock,\n      preImageHash,\n      relayerAddress,\n      relayerAsset,\n      relayerAmount,\n      relayerExpirationBlock\n    ));\n    require(completedSwaps[swapHash] != true, 'swap is already claimed');\n    require(expirationBlock > block.number, 'swap os expired');\n    require(notInPurgatory(account), 'account is in purgatory');\n    require(signatureIsValid(account, signature, swapHash), 'invalid signature');\n    // check if cheating\n    if (isCheating(nonce, account, asset, amount, relayerAsset, relayerAmount)) {\n      return;\n    }\n    // give priority to relayer if within deadline\n    require(relayerExpirationBlock > block.number || msg.sender == relayerAddress, 'not priority relayer');\n    require(sha256(abi.encodePacked(preImage)) == preImageHash, 'incorrect invoice');\n    // validated!\n    accountDetails[account].nonce = nonce;\n    completedSwaps[swapHash] = true;\n    transferFunds(account, relayerAddress, relayerAsset, relayerAmount);\n    transferFunds(account, receiver, asset, amount);\n    return;\n  }\n}",
  "sourcePath": "/Users/cat/code/github/MetaSwap/contracts/contracts/MetaSwap.sol",
  "compiler": {
    "name": "solc",
    "version": "0.5.16+commit.9c3226ce.Emscripten.clang"
  },
  "schemaVersion": "3.0.23",
  "updatedAt": "2020-02-21T12:00:13.447Z",
  "networkType": "ethereum",
  "devdoc": {
    "methods": {}
  },
  "userdoc": {
    "methods": {}
  }
}